:020000040000FA
:04000000B9EF3FF025
:107F72000001DAEF3FF0016E01C0A9FFA69CA69EA8
:107F8200A680A8501200026E02C0A9FF01C0A8FF7D
:107F9200A69CA69EA684550EA76EAA0EA76EA682C2
:107FA200A6B2D6EF3FF0D8EF3FF0D1EF3FF0A69464
:107FB2001200000E956E000E8C6EFF0E016EFF0E0B
:107FC200C4EC3FF0FF0EBCEC3FF08C6E0D0E046E65
:107FD200AF0E036EB60EE82EFED7032EFCD7042E8C
:107FE200FAD700D0000E016EFF0EC4EC3FF0FF0E78
:0E7FF200BCEC3FF08C6EFCEF3FF000EF00F0B7
:020000040020DA
:08000000FFFFFFFFFFFFFFFF00
:020000040030CA
:0E000000000C181EFF8180FF0FC00FE00F40A4
:00000001FF
