:020000040000FA
:0400000013EF00F00A
:060008005C826EED1BF0AE
:100018005C80E0CF03F003C0E0FF5C901000FBEFD2
:020028001BF0CB
:10080000002045733A2025302E32662056200049BC
:100810004E46004E414E00696E66006E616E006C81
:030820006600006F
:10082400000E00017B6F000E7A6F39C08CF03AC065
:100834008DF03BC08EF03CC08FF08FBF26EF04F0EC
:1008440024EF04F03CEF04F0000E7B6F010E7A6F8E
:100854008CC004F08DC005F08EC006F08FC007F088
:10086400A8EC1BF004C08CF005C08DF006C08EF01F
:1008740007C08FF0000E0001936F000E926FC6C088
:100884007FF0C7C080F07A517B11D8A44CEF04F0FC
:100894004EEF04F055EF04F059A453EF04F055EF74
:1008A40004F06FEF04F07A517B11D8A45CEF04F0EC
:1008B4005EEF04F064EF04F0000E656F2B0E646FBE
:1008C40068EF04F0000E656F2D0E646F64C000F1D4
:1008D400924B932B7F07D8A080078CC004F08DC067
:1008E40005F08EC006F08FC007F0FCEC16F004048F
:1008F4000510D8A480EF04F082EF04F0D9EF04F0DF
:10090400BF0E3E6EFF0E3F6E3D50406E416A3E503C
:1009140040263F50412241500AE11A0E405CD8A0C3
:1009240096EF04F099EF04F0010E9AEF04F0000E34
:100934000001666F676B66516711D8B4A4EF04F0C9
:10094400A6EF04F0B4EF04F0000E9225046E010E3D
:100954009321056E0F0E066E080E076E88EC1AF0D2
:10096400C0EF04F0000E9225046E010E9321056E73
:10097400170E066E080E076E88EC1AF00001FD0EC5
:100984007F27FF0E802337C014F038C015F0000E07
:10099400166E010E176E7FC018F080C019F0ADEC12
:1009A40018F014C037F015C038F0EAEF09F08CC025
:1009B40004F08DC005F08EC006F08FC007F0FCEC8B
:1009C40016F004500510D8A4EAEF04F0ECEF04F09C
:1009D4002CEF05F0BF0E3E6EFF0E3F6E3D50406E95
:1009E400416A3E5040263F50412241500AE11A0ECE
:1009F400405CD8A000EF05F003EF05F0010E04EF12
:100A040005F0000E0001686F696B68516911D8B474
:100A14000EEF05F010EF05F01EEF05F0000E922525
:100A2400046E010E9321056E130E066E080E076EFA
:100A340088EC1AF0C0EF04F0000E9225046E010E4B
:100A44009321056E1B0E066E080E076E88EC1AF0D5
:100A5400C0EF04F0000E0001946F000E956F800E3D
:100A6400966F3F0E976F000E916F000E906F8CC0C3
:100A740004F08DC005F08EC006F08FC007F0000EA4
:100A8400086E000E096E000E0A6E000E0B6E66EC08
:100A940019F0D8B050EF05F052EF05F0D5EF05F09E
:100AA40071EF05F094C012F095C013F096C014F0E5
:100AB40097C015F0000E166E000E176E200E186EFD
:100AC400410E196EDDEC0EF012C094F013C095F0D7
:100AD40014C096F015C097F00001904B912B8CC078
:100AE4002BF08DC02CF08EC02DF08FC02EF0000E98
:100AF400166E000E176E200E186E410E196E94C0FD
:100B040012F095C013F096C014F097C015F0DDEC08
:100B14000EF012C02FF013C030F014C031F015C025
:100B240032F07AEC16F0D8B09AEF05F09CEF05F0AD
:100B340054EF05F0BCEF05F094C004F095C005F047
:100B440096C006F097C007F0000E086E000E096EFE
:100B5400200E0A6E410E0B6EF2EC10F004C094F0FD
:100B640005C095F006C096F007C097F00001900705
:100B7400D8A091078CC02BF08DC02CF08EC02DF026
:100B84008FC02EF094C02FF095C030F096C031F095
:100B940097C032F07AEC16F0D8A0D3EF05F0D5EF79
:100BA40005F09EEF05F03DC00AF00B6A58EC1AF010
:100BB4000A500001816F81C07EF0670E8119D8A4AC
:100BC400E6EF05F0E8EF05F00EEF06F05750581089
:100BD400D8A4EFEF05F0F1EF05F0F5EF05F0000E06
:100BE400586E010E576E58BE02EF06F0585006E1DB
:100BF4005704D8B000EF06F002EF06F008EF06F055
:100C0400000E7D6F060E7C6F17EF06F057C07CF068
:100C140058C07DF017EF06F058BE13EF06F015EF3D
:100C240006F002EF06F008EF06F0670E8119D8A46B
:100C34001EEF06F020EF06F04FEF06F091AF2EEF17
:100C440006F0FC0E905DFF0E9159D8A02CEF06F033
:100C54002EEF06F04DEF06F0FF0E3E6EFF0E3F6ED8
:100C64007CC040F07DC041F03E5040263F504122C0
:100C74009051405C4150800A426E9151800A425822
:100C8400D8A047EF06F049EF06F04DEF06F0660EE8
:100C94007E6F4FEF06F0650E7E6F7CC074F07DC0F2
:100CA40075F0670E8119D8A45AEF06F05CEF06F0D0
:100CB4006CEF06F0660E7E19D8A463EF06F065EFBC
:100CC40006F06EEF06F091BF6CEF06F06AEF06F0E7
:100CD4006EEF06F0744B752B660E7E19D8A475EF73
:100CE40006F077EF06F097EF06F091BF7EEF06F07F
:100CF4007CEF06F08AEF06F0000E946F000E956FFD
:100D0400800E966F3F0E976F000E916F000E906FDE
:100D1400670E8119D8B491EF06F093EF06F097EFC0
:100D240006F09051742791517523000E8B6F000EBD
:100D34008A6F8CC082F08DC083F08EC084F08FC027
:100D440085F094C060F095C061F096C062F097C0E1
:100D540063F028EF07F082C004F083C005F084C07C
:100D640006F085C007F094C008F095C009F096C05D
:100D74000AF097C00BF0F2EC10F004C01DF005C0AF
:100D84001EF006C01FF007C020F0BFEC12F01DC01B
:100D940086F01EC087F01FC088F020C089F086C08E
:100DA40004F087C005F088C006F089C007F0F7ECAE
:100DB40015F004C078F005C079F082C02BF083C030
:100DC4002CF084C02DF085C02EF094C016F095C090
:100DD40017F096C018F097C019F086C012F087C0BB
:100DE40013F088C014F089C015F0DDEC0EF012C0C9
:100DF4002FF013C030F014C031F015C032F008ECFD
:100E04001BF02BC082F02CC083F02DC084F02EC0C8
:100E140085F094C004F095C005F096C006F097C024
:100E240007F0000E086E000E096E200E0A6E410EC9
:100E34000B6EF2EC10F004C094F005C095F006C0FF
:100E440096F007C097F000018A4B8B2B74518A5D92
:100E54008B51800A3E6E7551800A3E58D8A035EFFA
:100E640007F037EF07F0ADEF06F094C012F095C02D
:100E740013F096C014F097C015F0000E166E000E15
:100E8400176EA00E186E400E196EDDEC0EF012C037
:100E940086F013C087F014C088F015C089F082C0B2
:100EA4002BF083C02CF084C02DF085C02EF086C0BA
:100EB4002FF087C030F088C031F089C032F07AEC6E
:100EC40016F0D8B068EF07F06AEF07F075EF07F097
:100ED400000E0001866F000E876F000E886F000EF3
:100EE400896F9EEF07F082C004F083C005F084C0D0
:100EF40006F085C007F086C008F087C009F088C0F6
:100F04000AF089C00BF066EC19F0D8A08CEF07F05A
:100F14008EEF07F09EEF07F0000178B194EF07F031
:100F240096EF07F09EEF07F0000E866F000E876FB6
:100F3400000E886F000E896F8CC004F08DC005F020
:100F44008EC006F08FC007F086C008F087C009F095
:100F540088C00AF089C00BF07DEC0CF004C082F06C
:100F640005C083F006C084F007C085F060C094F02B
:100F740061C095F062C096F063C097F0650E000101
:100F84007E19D8B4C8EF07F0CAEF07F0D0EF07F026
:100F940090C076F091C077F0D4EF07F0000E776F31
:100FA400000E766F000E736F000E726F000E716F7D
:100FB400000E706F000E8B6F000E8A6FD0EF08F07A
:100FC40082C004F083C005F084C006F085C007F039
:100FD40094C008F095C009F096C00AF097C00BF0D1
:100FE400F2EC10F004C01DF005C01EF006C01FF0A6
:100FF40007C020F0BFEC12F01DC086F01EC087F0C1
:101004001FC088F020C089F086C004F087C005F0B6
:1010140088C006F089C007F0F7EC15F004C078F03A
:1010240005C079F059B819EF08F01BEF08F039EF53
:1010340008F0000178517911D8A423EF08F025EFC6
:1010440008F039EF08F0670E8119D8A42CEF08F0E6
:101054002EEF08F039EF08F077BF35EF08F033EFE3
:1010640008F039EF08F0704B712B84EF08F00001A1
:1010740072517311D8A441EF08F043EF08F06DEFFB
:1010840008F077BF4AEF08F048EF08F06DEF08F07A
:10109400000E9225D96E010E9321DA6E2E0EDF6EAC
:1010A400924B932B7F07D8A08007000E736F010E1D
:1010B400726F6DEF08F0000E9225D96E010E932128
:1010C400DA6E300EDF6E924B932B7F07D8A0800729
:1010D4007007D8A0710770517111D8A474EF08F08B
:1010E40076EF08F05DEF08F0000E9225D96E010E40
:1010F4009321DA6E7851300FDF6E924B932B7F077A
:10110400D8A0800782C02BF083C02CF084C02DF0BF
:1011140085C02EF094C016F095C017F096C018F054
:1011240097C019F086C012F087C013F088C014F07D
:1011340089C015F0DDEC0EF012C02FF013C030F0B2
:1011440014C031F015C032F008EC1BF02BC082F053
:101154002CC083F02DC084F02EC085F094C004F020
:1011640095C005F096C006F097C007F0000E086E13
:10117400000E096E200E0A6E410E0B6EF2EC10F09A
:1011840004C094F005C095F006C096F007C097F02F
:1011940000017607D8A077078A4B8B2B74518A5DA0
:1011A4008B51800A3E6E7551800A3E58D8B0DDEFEF
:1011B40008F0DFEF08F0EDEF08F093BFEBEF08F075
:1011C400935109E14B0E925DD8A0EBEF08F0EDEFDF
:1011D40008F0E2EF07F072517311D8A4F4EF08F0AD
:1011E400F6EF08F007EF09F059A8FBEF08F0FDEF60
:1011F40008F007EF09F0000E9225D96E010E932135
:10120400DA6E2E0EDF6E924B932B000E9225D96E62
:10121400010E9321DA6E000EDF6E650E7E19D8A4DE
:1012240016EF09F018EF09F0C5EF04F0000E8B6F0C
:101234004F0E8A6F000E8A25D96E010E8B21DA6E4D
:10124400000EDF6E000E7B6F000E7A6F91BF2FEFE2
:1012540009F02DEF09F037EF09F0000E7B6F010E56
:101264007A6F906D911FD8B0912B000E7D6F020E96
:101274007C6F68EF09F08A07D8A08B07000E8A25D7
:10128400D96E010E8B21DA6E90C004F091C005F086
:10129400000E076E0A0E066E0EEC19F00450300FA5
:1012A400DF6E90C004F091C005F0000E076E0A0EC8
:1012B400066E4BEC18F004C090F005C091F00001EC
:1012C4007C07D8A07D077F07D8A080079051911193
:1012D400D8A46FEF09F071EF09F03DEF09F07DBF7D
:1012E4007EEF09F07D5106E17C05D8B07CEF09F072
:1012F4007EEF09F03DEF09F08A07D8A08B077A51F9
:101304007B11D8A488EF09F08AEF09F090EF09F077
:10131400000E6B6F2B0E6A6F94EF09F0000E6B6F6B
:101324002D0E6A6F000E8A25D96E010E8B21DA6E9E
:101334006AC0DFFF7F07D8A080078A07D8A08B0781
:10134400BF0E3E6EFF0E3F6E3D50406E416A3E50F2
:1013540040263F50412241500AE11A0E405CD8A079
:10136400B6EF09F0B9EF09F0010EBAEF09F0000E7B
:101374006E6F6F6B6E516F11D8A4C3EF09F0C5EF98
:1013840009F0CBEF09F0000E6D6F650E6C6FCFEFB7
:1013940009F0000E6D6F450E6C6F000E8A25D96E34
:1013A400010E8B21DA6E6CC0DFFF7F07D8A08007A7
:1013B400000E9225046E010E9321056E000E8A25FF
:1013C400066E010E8B21076E88EC1AF0C5EF04F04F
:1013D400120045C0D9FF46C0DAFFDECFF6FFDDCFED
:1013E400F7FF0800F550250AD8A4FBEF09F0FDEF3C
:1013F40009F061EF0CF045C0D9FF46C0DAFFDE2AE0
:10140400000EDD22000E0001C76F000EC66FC6C0BD
:1014140059F0C7C05AF057685868000E996F000E0B
:10142400986F5BEF0AF0598045C0D9FF46C0DAFFD8
:10143400DE2A000EDD225BEF0AF0598216EF0AF075
:10144400598416EF0AF0598616EF0AF0598816EFF8
:101454000AF0000E996F010E986F5BEF0AF045C019
:10146400D9FF46C0DAFFDECFF6FFDDCFF7FF080075
:10147400F550496E4A6A4A50000AD8B444EF0AF05B
:101484002BEF0AF04950200AD8B425EF0AF0030ADA
:10149400D8B428EF0AF0080AD8B422EF0AF0060AF2
:1014A400D8B415EF0AF01D0AD8B41FEF0AF02BEFD9
:1014B4000AF098519911D8B462EF0AF064EF0AF077
:1014C40031EF0AF059A069EF0AF06BEF0AF06CEF04
:1014D4000AF0599245C0D9FF46C0DAFFDECFF6FFC5
:1014E400DDCFF7FF0800F5502E0AD8A47CEF0AF0F0
:1014F4007EEF0AF0FCEF0AF0000E586E000E576EF5
:1015040045C0D9FF46C0DAFFDE2A000EDD2245C001
:10151400D9FF46C0DAFFDECFF6FFDDCFF7FF0800C4
:10152400F5502A0AD8A499EF0AF09BEF0AF0B8EF15
:101534000AF045C0D9FF46C0DAFFDE2A000EDD22DC
:1015440047C0D9FF48C0DAFFDFCF49F0020EDE26DC
:10155400DFCF4AF0000EDD2249C0D9FF4AC0DAFFCE
:10156400DECF57F0DDCF58F0FCEF0AF045C0D9FFCD
:1015740046C0DAFFDECF0BF0DDCF0CF0A2EC14F0A6
:101584000BC057F00CC058F0CFEF0AF045C0D9FF9C
:1015940046C0DAFFDE2A000EDD22D00E496EFF0EB1
:1015A4004A6E45C0D9FF46C0DAFFDECFF6FFDDCF75
:1015B400F7FF0800F5504B6E4C6A49504B264A50D1
:1015C4004C224C500AE10A0E4B5CD8A0ECEF0AF016
:1015D400EFEF0AF0010EF0EF0AF0000E00019A6F2F
:1015E4009B6B9A519B11D8A4FAEF0AF0FCEF0AF016
:1015F400C8EF0AF045C0D9FF46C0DAFFDECFF6FFD8
:10160400DDCFF7FF0800F5500A6E0B6A58EC1AF0AC
:101614000A500001A26FA251D8B413EF0BF015EFDA
:101624000BF04FEF0BF045C0D9FF46C0DAFFDECF19
:1016340049F0DDCF4AF0010E4926000E4A2249C086
:10164400F6FF4AC0F7FF0800F5500A6E0B6A58EC23
:101654001AF00A500001A36FA351D8B434EF0BF071
:1016640036EF0BF04FEF0BF045C0D9FF46C0DAFF61
:10167400DECF49F0DDCF4AF0020E4926000E4A22A1
:1016840049C0F6FF4AC0F7FF0800F5500A6E0B6A1E
:1016940058EC1AF00A500001A46F660EA219D8A4DF
:1016A40056EF0BF058EF0BF098EF0BF045C0D9FF55
:1016B40046C0DAFFDECFF6FFDDCFF7FF0800F5CF37
:1016C400A5F045C0D9FF46C0DAFFDE2A000EDD22B0
:1016D40047C0D9FF48C0DAFFDFCF49F0040EDE2649
:1016E400DFCF4AF0000EDD2249C0D9FF4AC0DAFF3D
:1016F400DECF9EF0DECF9FF0DECFA0F0DECFA1F0F4
:1017040043C037F044C038F09EC039F09FC03AF06F
:10171400A0C03BF0A1C03CF0A5C03DF012EC04F029
:1017240037C043F038C044F07CEF0CF0A20E046ED6
:10173400000E056E1F0E066E080E076E000E096E73
:10174400020E086E7BEC17F004500510D8A4ADEF20
:101754000BF0AFEF0BF02BEF0CF045C0D9FF46C0F8
:10176400DAFFDECF49F0DDCF4AF0010E4926000E44
:101774004A2249C0F6FF4AC0F7FF0800F5CFA5F09A
:10178400BF0E496EFF0E4A6E45C0D9FF46C0DAFF50
:10179400DECFF6FFDDCFF7FF0800F5504B6E4C6A45
:1017A40049504B264A504C224C500AE11A0E4B5CCD
:1017B400D8A0DFEF0BF0E2EF0BF0010EE3EF0BF03C
:1017C400000E00019C6F9D6B9C519D11D8B4EDEFF0
:1017D4000BF0EFEF0BF009EF0CF047C0D9FF48C056
:1017E400DAFFDFCF49F0040EDE26DFCF4AF0000E29
:1017F400DD2249C0D9FF4AC0DAFFDECF9EF0DECF3A
:101804009FF0DECFA0F0DECFA1F021EF0CF047C0B7
:10181400D9FF48C0DAFFDFCF49F0040EDE26DFCF60
:101824004AF0000EDD2249C0D9FF4AC0DAFFDECFFC
:101834009EF0DECF9FF0DECFA0F0DECFA1F0020E4F
:1018440045C0D9FF46C0DAFFDE26000EDD2282EF56
:101854000BF045C0D9FF46C0DAFFDECFF6FFDDCF7F
:10186400F7FF0800F550250AD8A43BEF0CF03DEF34
:101874000CF054EF0CF045C0D9FF46C0DAFFDE2A65
:10188400000EDD22000E056E250E046E43C006F028
:1018940044C007F0E6EC17F0000E446E010E436EF0
:1018A4007CEF0CF045C0D9FF46C0DAFFDE2A000EFB
:1018B400DD22000E446E000E436E7CEF0CF045C03A
:1018C400D9FF46C0DAFFDECFF6FFDDCFF7FF080011
:1018D400F550046E056A43C006F044C007F0E6EC18
:1018E40017F045C0D9FF46C0DAFFDE2A000EDD221C
:1018F4004EEF0CF012000750800B106E07500724B7
:10190400126E06AE88EF0CF08AEF0CF08BEF0CF041
:1019140012801250D8B491EF0CF093EF0CF0A8EFB2
:101924000CF01228D8A499EF0CF09BEF0CF0A3EF65
:101934000CF0000E046E000E056E000E066E000E16
:10194400076E068E000E076EB0EF0CF0000E046EEC
:10195400000E056E000E066E000E076E0B50800B17
:10196400116E10501118D8B4BAEF0CF0BCEF0CF093
:10197400BDEF0CF0108C0B500B24116E0AAEC5EFAA
:101984000CF0C7EF0CF0C8EF0CF011801150D8B474
:10199400CEEF0CF0D0EF0CF0E5EF0CF01128D8A44A
:1019A400D6EF0CF0D8EF0CF0E0EF0CF0000E086E60
:1019B400000E096E000E0A6E000E0B6E0A8E000EEB
:1019C4000B6EEDEF0CF0000E086E000E096E000EAB
:1019D4000A6E000E0B6E1250115CD8B0F4EF0CF0CE
:1019E400F6EF0CF01DEF0DF010ACFBEF0CF0FDEF7B
:1019F4000CF0FFEF0CF0800E101A12C013F011C09F
:101A040012F013C011F004C013F008C004F013C0A6
:101A140008F005C013F009C005F013C009F006C0B2
:101A240013F00AC006F013C00AF007C013F00BC08D
:101A340007F013C00BF0000E136E125011C00CF01F
:101A44000D6A0C5E000E0D5A0DBE32EF0DF00D50F6
:101A540009E11A0E0C5CD8A032EF0DF034EF0DF052
:101A64006BEF0DF00450051006100710D8A43DEFDD
:101A74000DF040EF0DF0010E41EF0DF0000E136E6E
:101A8400000E046E000E056E000E066E000E076E4C
:101A940011C012F074EF0DF013A053EF0DF055EFD9
:101AA4000DF05BEF0DF0D89013300109136E5DEF6C
:101AB4000DF0D890133204A062EF0DF064EF0DF036
:101AC40065EF0DF0138E0734073206320532043207
:101AD400122A1150125CD8A072EF0DF074EF0DF0C1
:101AE4004EEF0DF010BC79EF0DF07BEF0DF0BBEF76
:101AF4000DF01250D8A481EF0DF083EF0DF08DEFAF
:101B04000DF0000E046E000E056E000E066E000E43
:101B1400076EDCEF0EF008500426095005220A5027
:101B240006220B50072207A09AEF0DF09CEF0DF050
:101B340048EF0EF013A0A1EF0DF0A3EF0DF0A9EF05
:101B44000DF0D89013300109136EABEF0DF0D8905F
:101B5400133204A0B0EF0DF0B2EF0DF0B3EF0DF0BF
:101B6400138E07340732063205320432122A48EF44
:101B74000EF00850045C095005580A5006580750E6
:101B8400800A0C6E0B50800A0C58D8B0CCEF0DF0C4
:101B9400CEEF0DF0F9EF0DF00450085C0C6E05501B
:101BA40009580D6E06500A580E6E07500B580F6EEA
:101BB400FF0E0C24046EFF0E0D20056EFF0E0E208A
:101BC400066EFF0E0F20076E800E101A136C135052
:101BD400D8A4EFEF0DF0F1EF0DF001EF0EF0010ED0
:101BE4000426000E05220622072201EF0EF00850FB
:101BF400045E0950055A0A50065A0B50075A0450FD
:101C0400051006100710D8A40AEF0EF00CEF0EF022
:101C140041EF0EF01350D8A412EF0EF014EF0EF0B3
:101C240041EF0EF0000E046E000E056E000E066EFF
:101C3400000E076EDCEF0EF0D8900436053606363B
:101C4400073613AE28EF0EF02AEF0EF02BEF0EF04E
:101C5400048013A030EF0EF032EF0EF036EF0EF0EA
:101C6400D880133638EF0EF0D89013361250D8B40B
:101C74003EEF0EF040EF0EF041EF0EF0120606AE0E
:101C840046EF0EF048EF0EF01EEF0EF0000E116E50
:101C940013AE4FEF0EF051EF0EF069EF0EF013C0DC
:101CA4000CF07F0E0C16D8B45AEF0EF05CEF0EF069
:101CB40060EF0EF0010E116E69EF0EF004A065EFF7
:101CC4000EF067EF0EF069EF0EF05CEF0EF01150BE
:101CD400D8B46FEF0EF071EF0EF09CEF0EF0010E22
:101CE4000426000E05220622072207A07CEF0EF030
:101CF4007EEF0EF09CEF0EF004C00CF005C00DF06A
:101D040006C00EF007C00FF00F340F320E320D3242
:101D14000C320CC004F00DC005F00EC006F00FC06C
:101D240007F01228D8B499EF0EF09BEF0EF09CEF59
:101D34000EF0122A1228D8B4A2EF0EF0A4EF0EF07F
:101D4400ACEF0EF01250D8A4AAEF0EF0ACEF0EF0E8
:101D5400BEEF0EF0000E046E000E056E000E066E51
:101D6400000E076E1250D8A4BAEF0EF0BCEF0EF0BE
:101D7400BEEF0EF0000E106E12A0C3EF0EF0C5EF12
:101D84000EF0C8EF0EF0068EC9EF0EF0069ED89046
:101D94001230076E10AED1EF0EF0D3EF0EF0D4EF89
:101DA4000EF0078E04C004F005C005F006C006F06E
:101DB40007C007F012001550800B1E6E1550152435
:101DC400246E14AEE8EF0EF0EAEF0EF0EBEF0EF037
:101DD40024802450D8B4F1EF0EF0F3EF0EF006EFA8
:101DE4000FF02428D8A4F9EF0EF0FBEF0EF003EF68
:101DF4000FF0000E126E000E136E000E146E000E25
:101E0400156E148E0EEF0FF0000E126E000E136E90
:101E1400000E146E000E156E1950800B1E1A195008
:101E24001924236E18AE19EF0FF01BEF0FF01CEFFF
:101E34000FF023802350D8B422EF0FF024EF0FF0DB
:101E440037EF0FF02328D8A42AEF0FF02CEF0FF070
:101E540034EF0FF0000E166E000E176E000E186EA3
:101E6400000E196E188E3FEF0FF0000E166E000E66
:101E7400176E000E186E000E196E2350D8B445EF7D
:101E84000FF047EF0FF04FEF0FF02450D8A44DEFB1
:101E94000FF04FEF0FF059EF0FF0000E126E000E1F
:101EA400136E000E146E000E156EF1EF10F0185044
:101EB4001202F3CF29F0F4CF2AF029501F6E206AC2
:101EC400216A226A2A50256E266A276A286A1750D0
:101ED4001302F3CF29F0F4CF2AF029501F26000E65
:101EE4002022212222222A502526000E26222722C1
:101EF400282216501402F3CF29F0F4CF2AF02950E7
:101F04001F26000E2022212222222A502526000EDE
:101F140026222722282221C022F020C021F01FC01F
:101F240020F01F6A16501302F3CF29F0F4CF2AF0E1
:101F340029501F262A502022000E2122000E222280
:101F440017501202F3CF29F0F4CF2AF029501F269C
:101F54002A502022000E2122000E222221C022F02B
:101F640020C021F01FC020F01F6A16501202F3CFC8
:101F740029F0F4CF2AF029501F262A502022000EDF
:101F84002122000E222218501302F3CF29F0F4CF9D
:101F94002AF0295025262A502622000E2722000E38
:101FA400282217501402F3CF29F0F4CF2AF0295035
:101FB40025262A502622000E2722000E28221850F9
:101FC4001402F3CF29F0F4CF2AF029501A6E2A50C4
:101FD4001B6E1C6A1D6A1CC01DF01BC01CF01AC0BD
:101FE4001BF01A6A1A5025261B5026221C50272241
:101FF4001D5028221FC01AF020C01BF021C01CF065
:1020040022C01DF0190E0CEF10F0D8901D321C32B6
:102014001B321A32E82E07EF10F01A5025261B50F7
:1020240026221C5027221D50282221C022F020C025
:1020340021F01FC020F01F6A235024C01AF01B6A2D
:102044001A26000E1B22820E1A24296EFF0E1B2054
:102054002A6E42EF10F0D8902536263627362836D9
:1020640022AE37EF10F039EF10F03AEF10F0258080
:10207400D8901F362036213622362906D8A02A06C3
:1020840027AE47EF10F049EF10F02DEF10F0000EDF
:10209400236E22AE50EF10F052EF10F076EF10F0F6
:1020A400FF0E1F141A6EFF0E20141B6EFF0E211458
:1020B4001C6E7F0E22141D6E1A501B101C101D1056
:1020C400D8B467EF10F069EF10F06DEF10F0010E67
:1020D400236E76EF10F025A072EF10F074EF10F07D
:1020E40076EF10F069EF10F02350D8B47CEF10F0C5
:1020F4007EEF10F0A2EF10F0010E2526000E26222E
:102104002722282228A089EF10F08BEF10F0A2EFED
:1021140010F025C01AF026C01BF027C01CF028C000
:102124001DF01D341D321C321B321A321AC025F028
:102134001BC026F01CC027F01DC028F0294A2A2AFB
:102144002ABEADEF10F02A5008E12928D8A0ADEF3F
:1021540010F0AFEF10F0B9EF10F0000E256E000E86
:10216400266E800E276E7F0E286EE7EF10F02ABED3
:10217400C6EF10F02A5006E12904D8B0C4EF10F0DD
:10218400C6EF10F0D2EF10F0000E256E000E266E92
:10219400000E276E000E286E000E1E6EE7EF10F084
:1021A40029C024F0FF0E2516FF0E26167F0E2716D3
:1021B400000E281624A0E1EF10F0E3EF10F0E4EF96
:1021C40010F0278ED8902430286E1E50281225C077
:1021D40012F026C013F027C014F028C015F0120026
:1021E4000750800B146E075007241B6E06AEFDEFDC
:1021F40010F0FFEF10F000EF11F01B801B50D8B46B
:1022040006EF11F008EF11F01DEF11F01B28D8A410
:102214000EEF11F010EF11F018EF11F0000E046E34
:10222400000E056E000E066E000E076E068E000E82
:10223400076E25EF11F0000E046E000E056E000E01
:10224400066E000E076E0B50800B141A0B500B24F5
:102254001C6E0AAE30EF11F032EF11F033EF11F0D3
:102264001C801C50D8B439EF11F03BEF11F050EF43
:1022740011F01C28D8A441EF11F043EF11F04BEFFB
:1022840011F0000E086E000E096E000E0A6E000EAC
:102294000B6E0A8E000E0B6E58EF11F0000E086ED6
:1022A400000E096E000E0A6E000E0B6E0850091027
:1022B4000A100B10D8A461EF11F063EF11F07BEF5B
:1022C40011F0000E046E000E056E000E066E000E78
:1022D400076E800E06127F0E07121450071204C0F8
:1022E40004F005C005F006C006F007C007F0BEEF15
:1022F40012F01B50D8A481EF11F083EF11F08DEF91
:1023040011F0000E046E000E056E000E066E000E37
:10231400076EBEEF12F01C501BC00CF00D6A0C5E71
:10232400000E0D5A7F0E0C24156E000E0D20166E35
:1023340004C010F005C011F006C012F007C013F07D
:10234400000E046E000E056E000E066E000E076E83
:10235400000E176E000E186E000E196E000E1A6E27
:10236400000E1C6EEEEF11F01C50D8B4BCEF11F04F
:10237400BEEF11F0D5EF11F0D890103611361236A9
:102384001336D89004360536063607361AAECDEF26
:1023940011F0CFEF11F0D0EF11F00480D890173680
:1023A400183619361A360850105C095011580A505C
:1023B40012580B501358D8A0E2EF11F0E4EF11F0CB
:1023C400EDEF11F01A8C0850105E0950115A0A50A2
:1023D400125A0B50135A1C2A190E1C64F4EF11F0F4
:1023E400F6EF11F0B6EF11F0105011101210131097
:1023F400D8B4FFEF11F001EF12F019EF12F01780CB
:1024040019EF12F0D89004360536063607361AAEA0
:102414000EEF12F010EF12F011EF12F00480D890CA
:102424001736183619361A361506D8A0160606AE0B
:102434001EEF12F020EF12F004EF12F0000E1C6EEB
:102444001AAE27EF12F029EF12F04DEF12F0FF0E43
:1024540017140C6EFF0E18140D6EFF0E19140E6E69
:102464007F0E1A140F6E0C500D100E100F10D8B4EE
:102474003EEF12F040EF12F044EF12F0010E1C6E2A
:102484004DEF12F004A049EF12F04BEF12F04DEFB4
:1024940012F040EF12F01C50D8B453EF12F055EF85
:1024A40012F079EF12F0010E0426000E0522062226
:1024B400072207A060EF12F062EF12F079EF12F03A
:1024C40004C00CF005C00DF006C00EF007C00FF0FC
:1024D4000F340F320E320D320C320CC004F00DC02A
:1024E40005F00EC006F00FC007F0154A162A16BEF6
:1024F40084EF12F0165008E11528D8A084EF12F0EA
:1025040086EF12F091EF12F0000E166E1568000EB1
:10251400046E000E056E000E066E000E076E16BEEB
:102524009EEF12F0165006E11504D8B09CEF12F09D
:102534009EEF12F0ACEF12F0000E166E000E156E48
:10254400000E046E000E056E000E066E000E076E81
:10255400000E146E15C01BF01BA0B3EF12F0B5EF04
:1025640012F0B8EF12F0068EB9EF12F0069ED89072
:102574001B30076E6FEF11F01200B8C02DF0B9C018
:102584002EF0BAC02FF0BBC030F01DC02DF01EC01D
:102594002EF01FC02FF020C030F0810E216EFF0EF0
:1025A400226E2DC023F02EC024F02FC025F030C0A1
:1025B40026F0180EE3EF12F0D8902632253224329A
:1025C4002332E82EDEEF12F0235021242B6E000E6E
:1025D40022202C6E2CBEF8EF12F02C5009E1170EBD
:1025E4002B5CD8A0F8EF12F0FAEF12F004EF13F01E
:1025F4001DC01DF01EC01EF01FC01FF020C020F023
:10260400C7EF13F02CBE09EF13F00BEF13F07BEFC1
:1026140013F02BC021F0FF0E226EFF0E236E7F0EEF
:10262400246E000E256E21661AEF13F022EF13F0CC
:1026340025342532243223322232212E15EF13F091
:1026440022C027F023C028F024C029F025C02AF096
:1026540027502D14216E28502E14226E29502F1429
:10266400236E2A503014246E21502210231024107B
:10267400D8A43FEF13F041EF13F043EF13F0FAEF58
:1026840012F02DC021F02EC022F02FC023F030C054
:1026940024F0200E53EF13F0D89024322332223248
:1026A4002132E82E4EEF13F0215022102310241073
:1026B400D8B45FEF13F061EF13F069EF13F0275014
:1026C4002D2628502E2229502F222A503022271C12
:1026D400216E281C226E291C236E2A1C246E215074
:1026E4002D1622502E1623502F1624503016BFEFCD
:1026F40013F02DC021F02EC022F02FC023F030C0E3
:1027040024F0200E8BEF13F0D8902432233222329F
:102714002132E82E86EF13F02150221023102410CA
:10272400D8A497EF13F099EF13F0A3EF13F0000E72
:102734002D6E000E2E6E000E2F6E000E306EBFEF4B
:1027440013F0D8902D34216E2E34226E2F34236E44
:102754003034246E2150221023102410D8B4B5EF45
:1027640013F0B7EF13F0BFEF13F0000E2D6E000E51
:102774002E6E800E2F6EBF0E306E2DC01DF02EC03B
:102784001EF02FC01FF030C020F012000C6E0C5051
:10279400D8B4CFEF13F0D1EF13F0F3EF13F007BE7B
:1027A400D8EF13F0D6EF13F0F3EF13F004C008F0F2
:1027B40005C009F006C00AF007C00BF0081E091E88
:1027C4000A1E0B1E082A000E09220A220B2208C028
:1027D4000EF009C00FF00AC010F00BC011F0FBEFAF
:1027E40013F004C00EF005C00FF006C010F007C0CF
:1027F40011F00450051006100710D8A404EF14F0CB
:1028040006EF14F010EF14F0000E046E000E056EC7
:10281400000E066E000E076EA1EF14F0960E0D6EFC
:102824001AEF14F00D2AD890113210320F320E32F2
:10283400000E0E14086E000E0F14096E000E101414
:102844000A6EFE0E11140B6E085009100A100B10BC
:10285400D8A42FEF14F031EF14F014EF14F03FEF7D
:1028640014F00D2A010E0E26000E0F221022112242
:10287400D890113210320F320E32000E0E14086E40
:10288400000E0F14096E000E10140A6EFF0E1114C0
:102894000B6E085009100A100B10D8A454EF14F052
:1028A40056EF14F033EF14F05EEF14F00D06D890E9
:1028B4000E360F361036113610BE63EF14F065EF86
:1028C40014F06DEF14F0020E0D606BEF14F06DEF69
:1028D40014F058EF14F00DB072EF14F074EF14F01C
:1028E40075EF14F0109ED8900D320DC008F0096AEF
:1028F4000A6A0B6A08C00BF00A6A096A086A085077
:102904000E1209500F120A5010120B5011120C50D3
:10291400D8B48FEF14F091EF14F099EF14F007BED0
:1029240098EF14F096EF14F099EF14F0118E0EC096
:1029340004F00FC005F010C006F011C007F012003B
:10294400000E196E000E186E000E126E000E116E3F
:10295400AEEF14F00B4A0C2A010E176E0BC0F6FFF3
:102964000CC0F7FF0800F550200AD8B4BCEF14F0EF
:10297400BEEF14F0DBEF14F0F70E0D6EFF0E0E6ECB
:102984000BC0F6FF0CC0F7FF0800F5500F6E106A7D
:102994000D500F260E501022105009E1050E0F5C49
:1029A400D8A0D7EF14F0D9EF14F0DBEF14F0000E39
:1029B400176E17C013F0146A13501410D8A4E5EF5F
:1029C40014F0E7EF14F0ACEF14F0F1EF14F0000E94
:1029D400126E010E116E0B4A0C2A26EF15F00BC075
:1029E400F6FF0CC0F7FF0800F5500D6E0E6A0E508E
:1029F400000AD8B400EF15F026EF15F00D502B0A9D
:102A0400D8B4EDEF14F0060AD8B4E9EF14F026EFC9
:102A140015F018C004F019C005F0000E076E0A0E78
:102A2400066E73EC1CF00BC0F6FF0CC0F7FF080039
:102A3400F550045E000E055A300E0424186E000E84
:102A44000520196EEDEF14F0D00E0D6EFF0E0E6E14
:102A54000BC0F6FF0CC0F7FF0800F5500F6E106AAC
:102A64000D500F260E50102210500AE10A0E0F5C72
:102A7400D8A03FEF15F042EF15F0010E43EF15F02B
:102A8400000E156E166A15501610D8A44CEF15F0EA
:102A94004EEF15F00BEF15F011501210D8A455EFAE
:102AA40015F057EF15F065EF15F018C00DF019C0CB
:102AB4000EF00D1E0E1E0D4A0E2A0DC00BF00EC098
:102AC4000CF069EF15F018C00BF019C00CF01200EF
:102AD4001F0E97EC1CF02BEC1CF0B1EC1CF086ECF8
:102AE4001CF0000E956E040E0001CA19D8A47DEFE7
:102AF40015F07FEF15F09CEF15F0000E076E000E39
:102B0400066E000E096E000E086E13EC1CF0D50E56
:102B1400066E000E076E43EC1CF0030E566E8A0E12
:102B2400556E560EE82EFED7552EFCD7562EFAD7E4
:102B34000001CA2B050ECA19D8A4A3EF15F0A5EFFE
:102B440015F075EF15F0000E4DEC1BF004C0C8F045
:102B540005C0C9F0C8C004F0C9C005F0066A076A18
:102B6400000EC8EC13F004C012F005C013F006C048
:102B740014F007C015F00A0E166E280E176EA00E7C
:102B8400186E3B0E196EDDEC0EF012C0C0F013C0CF
:102B9400C1F014C0C2F015C0C3F0CB0E0001A66F83
:102BA400000EA76F010EA86F080EA96FC0C0AAF08F
:102BB400C1C0ABF0C2C0ACF0C3C0ADF0B6EC1AF00B
:102BC400CB0E056E000E066E5BEC1CF0030E566E0B
:102BD4008A0E556E560EE82EFED7552EFCD7562E6D
:102BE400FAD775EF15F013EF00F0063407340D6EC5
:102BF4000D50D8A400EF16F002EF16F00CEF16F00B
:102C0400000E046E000E056E000E066E000E076EBA
:102C140079EF16F004C008F005C009F006C00AF008
:102C240007C00BF0200E1CEF16F0D8900B320A32BE
:102C340009320832E82E17EF16F008500C6E068E93
:102C4400FF0E0416FF0E0516FF0E0616000E0716DD
:102C5400960E0D5E0DBE33EF16F031EF16F049EF10
:102C640016F00D50800A970FD8B03BEF16F03DEFE9
:102C740016F03FEF16F002EF16F0D8900732063246
:102C8400053204320D3E3FEF16F061EF16F01F0ED1
:102C94000D644FEF16F051EF16F059EF16F002EFF6
:102CA40016F0D89004360536063607360D060D5054
:102CB400D8A45FEF16F061EF16F053EF16F00C5046
:102CC400D8B467EF16F069EF16F071EF16F0071E2F
:102CD400061E051E046C000E05220622072204C0EF
:102CE40004F005C005F006C006F007C007F01200A6
:102CF400000E2B14336E000E2C14346E800E2D1423
:102D0400356E7F0E2E14366E335034103510361057
:102D1400D8A48FEF16F091EF16F099EF16F0000E8D
:102D24002B6E000E2C6E000E2D6E000E2E6E000EFD
:102D34002F14336E000E3014346E800E3114356E41
:102D44007F0E3214366E3350341035103610D8A43A
:102D5400AEEF16F0B0EF16F0B8EF16F0000E2F6ECF
:102D6400000E306E000E316E000E326E2EAEBDEFD0
:102D740016F0BFEF16F0C8EF16F02B6C2C1ED8B06F
:102D84002C2A2D1ED8B02D2A800E2E5632AECDEF11
:102D940016F0CFEF16F0D8EF16F02F6C301ED8B027
:102DA400302A311ED8B0312A800E3256000E2B1A2A
:102DB400000E2C1A000E2D1A800E2E1A000E2F1A39
:102DC400000E301A000E311A800E321A2F502B5C6E
:102DD40030502C5831502D5832502E58D8B0F5EF71
:102DE40016F0F7EF16F0FAEF16F0D890FBEF16F0A6
:102DF400D8801200BCC00EF0BDC00FF0BEC010F0F1
:102E0400BFC011F004C00EF005C00FF006C010F0F2
:102E140007C011F00EC008F00FC009F010C00AF08E
:102E240011C00BF0180E1CEF17F0D8900B320A32B9
:102E340009320832E82E17EF17F008500C6E0D6AAD
:102E44000C500D10D8A429EF17F02BEF17F04BEF0F
:102E540017F0D8900E34086E0F34096E10340A6ED1
:102E640011340B6E085009100A100B10D8A43DEF52
:102E740017F03FEF17F045EF17F0000E056E020E46
:102E8400046E7AEF17F0000E056E030E046E7AEFEF
:102E940017F00C280D10D8A452EF17F054EF17F0C8
:102EA40076EF17F00EC008F00FC009F010C00AF05A
:102EB40011C00BF0090ED890083609360A360B36C5
:102EC400E82E5DEF17F0085009100A100B10D8B463
:102ED4006EEF17F071EF17F0010E72EF17F0000E9E
:102EE400046E056A7AEF17F0000E056E040E046E88
:102EF400120004C00BF005C00CF006C00DF007C0B2
:102F04000EF00806D8A00906082806E10928D8A466
:102F14008EEF17F090EF17F09DEF17F0000E056E8F
:102F2400000E046EE5EF17F00B4A0C2A0D4A0E2A28
:102F34000806D8A009060BC0D9FF0CC0DAFFDF5081
:102F4400D8B4A7EF17F0A9EF17F0D4EF17F00DC01E
:102F5400F6FF0EC0F7FF0800F5500009D8B4B5EF2E
:102F640017F0B7EF17F0D4EF17F008500910D8B4E2
:102F7400BEEF17F0C0EF17F0D4EF17F00BC0D9FF76
:102F84000CC0DAFFDF500A6E0DC0F6FF0EC0F7FF6B
:102F94000800F5500A18D8B4D2EF17F0D4EF17F0A0
:102FA40096EF17F00BC0D9FF0CC0DAFFDF500A6EA2
:102FB4000DC0F6FF0EC0F7FF0800F5500A5C046E62
:102FC400056AD8A00506120006500710D8B4EDEF24
:102FD40017F0EFEF17F0F8EF17F006500710D8A42A
:102FE400F6EF17F0F8EF17F0FDEF17F00450B5EC1B
:102FF4001CF04AEF18F020EE04F00650D9260750D2
:10300400DA22DE50DE10D8B40AEF18F00CEF18F014
:1030140027EF18F020EE04F00650D9260750DA22E4
:1030240010EE02F00650E1260750E222DE50E65C84
:10303400E650800A0C6EDE50800A0C58D8B025EF9A
:1030440018F027EF18F04AEF18F020EE02F00650BF
:10305400D9260750DA22DECF08F0DDCF09F006C00A
:10306400D9FF07C0DAFFDECF0AF0DDCF0BF008503E
:103074000A24D96E09500B20DA6E04C0DFFF20EE5B
:1030840002F00650D9260750DA22DE2A000EDD228D
:103094001200000E096E07BE54EF18F052EF18F03C
:1030A4005AEF18F0066C071ED8B0072A010E096EF5
:1030B40005BE61EF18F05FEF18F067EF18F0046CCD
:1030C400051ED8B0052A010E091A000E0B6E000E5B
:1030D4000A6E06500710D8B472EF18F074EF18F0A7
:1030E4009CEF18F0010E086E7CEF18F0D8900636AD
:1030F4000736082A07AE81EF18F083EF18F078EF4F
:1031040018F0D8900A360B360650045C0750055860
:10311400D8A08FEF18F091EF18F096EF18F0065042
:10312400045E0750055A0A80D89007320632082EEA
:1031340083EF18F00950D8B4A2EF18F0A4EF18F0F8
:10314400A8EF18F00A6C0B1ED8B00B2A0AC004F0C2
:103154000BC005F0120059A0B2EF18F0B4EF18F04C
:10316400BEEF18F016C00DF017C00EF014C00FF02B
:1031740015C010F02BEC1BF019BEC3EF18F0C5EF0F
:1031840018F0CBEF18F018C01DF019C01EF0CFEFE7
:1031940018F0000E1E6E000E1D6E000E1C6E000E4A
:1031A4001B6EE1EF18F0000E056E200E046E14C0C5
:1031B40006F015C007F0E6EC17F01B4A1C2A1D5058
:1031C4001B5C1C50800A1A6E1E50800A1A58D8A024
:1031D400EEEF18F0F0EF18F0D5EF18F059B0F5EF66
:1031E40018F0F7EF18F001EF19F016C00DF017C042
:1031F4000EF014C00FF015C010F02BEC1BF016C02D
:1032040004F017C005F0E0EC1BF01D500424146E0C
:103214001E500520156E1200000E096E05BE17EF34
:1032240019F015EF19F01DEF19F0046C051ED8B054
:10323400052A010E096E07BE24EF19F022EF19F0DA
:1032440028EF19F0066C071ED8B0072A065007109D
:10325400D8B42FEF19F031EF19F055EF19F0010E32
:10326400086E39EF19F0D89006360736082A07AEEB
:103274003EEF19F040EF19F035EF19F00650045CF9
:1032840007500558D8A049EF19F04BEF19F04FEF4C
:1032940019F00650045E0750055AD89007320632DA
:1032A400082E40EF19F00950D8B45BEF19F05DEF28
:1032B40019F061EF19F0046C051ED8B0052A04C09A
:1032C40004F005C005F01200000E04140C6E000E8C
:1032D40005140D6E800E06140E6E7F0E07140F6E0D
:1032E4000C500D100E100F10D8A47BEF19F07DEFC9
:1032F40019F085EF19F0000E046E000E056E000E35
:10330400066E000E076E000E08140C6E000E0914F3
:103314000D6E800E0A140E6E7F0E0B140F6E0C5081
:103324000D100E100F10D8A49AEF19F09CEF19F09D
:10333400A4EF19F0000E086E000E096E000E0A6E5E
:10334400000E0B6E085004180FE1095005180CE12B
:103354000A50061809E10B500718D8B4B4EF19F055
:10336400B6EF19F0B9EF19F0D890BAEF19F0D88088
:103374001200056E8C500F0B8C6E0550F00B8C10E8
:103384008C6E8C94070E046E7D0EE82EFED7042EF0
:10339400FCD700F08C86070E046E7D0EE82EFED757
:1033A400042EFCD700F08C960F0E8C160538F00B0B
:1033B400F00B8C128C94070E046E7D0EE82EFED753
:1033C400042EFCD700F08C86070E046E7D0EE82ECA
:1033D400FED7042EFCD700F08C960F0E8C1612002C
:1033E400056E0F0E8C160550F00B8C128C84070E94
:1033F400046E7D0EE82EFED7042EFCD700F08C86DA
:10340400070E046E7D0EE82EFED7042EFCD700F0C6
:103414008C960F0E8C160538F00BF00B8C128C84E6
:10342400070E046E7D0EE82EFED7042EFCD700F0A6
:103434008C86070E046E7D0EE82EFED7042EFCD774
:1034440000F08C960F0E8C1612004FC053F050C033
:1034540054F0000E0001C56F000EC46F45EF1AF062
:103464004DC043F04EC044F0530E456E000E466E00
:1034740051C047F052C048F0EBEC09F04350000152
:10348400C4274450C52353C0F6FF54C0F7FF0800B7
:10349400F5500009D8A451EF1AF053EF1AF032EFA7
:1034A4001AF0C4C04DF0C5C04EF01200BF0E0C6E31
:1034B400FF0E0D6E0AC00EF00BC00FF00C500E265E
:1034C4000D500F220F500AE11A0E0E5CD8A06DEFBA
:1034D4001AF070EF1AF0010E71EF1AF0000E106E70
:1034E400116A10501110D8B47AEF1AF07CEF1AF068
:1034F40083EF1AF0200E0A100A6E0B500B6E87EF42
:103504001AF00AC00AF00BC00BF0120006C00AF051
:1035140007C00BF004C00CF005C00DF00A50086E93
:103524000B50096E0A4A0B2A08C0F6FF09C0F7FFC0
:10353400F86A0CC0D9FF0DC0DAFF0C4A0D2A070E39
:10354400F76403D00800F55005D0F6CFE1FFF7CFBC
:10355400E2FFE750DF6EDF50D8A4B3EF1AF0B5EF07
:103564001AF090EF1AF01200AA0E0001B06F000ECC
:10357400B16FA6C0B2F0A7C0B3F0000EB56F000ED5
:10358400B46F000EB76F000EB66FB20E4D6E000E24
:103594004E6EA8C04FF0A9C050F0B00E516E000E90
:1035A400526E27EC1AF00001B451A625D96EB5511C
:1035B400A721DA6E000EDF6E1200010E0A6E200ED5
:1035C40004180510D8B4E9EF1AF0EBEF1AF004EF81
:1035D4001BF0F70E066EFF0E076E04C008F005C060
:1035E40009F00650082607500922095009E1050E82
:1035F400085CD8A000EF1BF002EF1BF004EF1BF0F7
:10360400000E0A6E0AC004F0056A1200000E2F1A9A
:10361400000E301A000E311A800E321A2BC004F03C
:103624002CC005F02DC006F02EC007F02FC008F006
:1036340030C009F031C00AF032C00BF07DEC0CF060
:1036440004C02BF005C02CF006C02DF007C02EF0EE
:103654001200000E136E000E126E3CEF1BF011C030
:1036640004F0056A0FC006F010C007F0E6EC17F08E
:10367400124A132A12500D24D96E13500E20DA6EFA
:10368400DF50116E1150D8A44AEF1BF04CEF1BF021
:1036940031EF1BF01200076E0C0E076454EF1BF0A1
:1036A40056EF1BF058EF1BF0000E076E07C006F034
:1036B40006460646C2500618C30B0618C26EC282DE
:1036C400C2B267EF1BF069EF1BF062EF1BF0C3CFD0
:1036D40004F0C4CF05F012000600D9CF01F0DACF10
:1036E40002F0040E0001CA617AEF1BF07CEF1BF0BC
:1036F40085EF1BF0D50ECA25D96EDA6A000EDA22E0
:10370400AECFDFFFCA2B9E9A02C0DAFF01C0D9FFF9
:103714005C921100BF0E066EFF0E076E04C008F027
:1037240005C009F0065008260750092209500AE18D
:103734001A0E085CD8A0A1EF1BF0A4EF1BF0010E39
:10374400A5EF1BF0000E046E056A1200045005106C
:1037540006100710D8B4B1EF1BF0B3EF1BF0BBEFAA
:103764001BF0000E041A000E051A000E061A800E35
:10377400071A04C004F005C005F006C006F007C02F
:1037840007F01200D00E066EFF0E076E04C008F09C
:1037940005C009F0065008260750092209500AE11D
:1037A4000A0E085CD8A0D9EF1BF0DCEF1BF0010E69
:1037B400DDEF1BF0000E046E056A120004C006F073
:1037C40005C007F0E8EF1BF0044A052A04C0D9FF3E
:1037D40005C0DAFFDF50D8A4F2EF1BF0F4EF1BF0C2
:1037E400E6EF1BF00650045C046E07500558056EA6
:1037F400120001EE00F0500EEE6AE806FDE100EE64
:10380400B8F0210EEE6AE806FDE15B6A5A6A596A6D
:10381400586A576A5C905C92000EF86E00016AEF79
:1038240015F007BE1EEF1CF0075008E10604D8A0EF
:103834001EEF1CF020EF1CF026EF1CF00850C00F08
:10384400BBEC19F02AEF1CF00850800FBBEC19F008
:103854001200000E956E300EBBEC19F0300EBBEC6E
:1038640019F0320EBBEC19F0280EBBEC19F00C0E5B
:10387400BBEC19F0010EBBEC19F0060EBBEC19F011
:1038840012004EEF1CF006C0D9FF07C0DAFFDF506C
:10389400F2EC19F0064A072A06C0D9FF07C0DAFF7E
:1038A400DF50D8A458EF1CF05AEF1CF045EF1CF081
:1038B400120066EF1CF005C0D9FF06C0DAFFDF5026
:1038C400A6EC1CF0054A062A05C0D9FF06C0DAFF9B
:1038D400DF50D8A470EF1CF072EF1CF05DEF1CF009
:1038E400120004500602F3CF08F0F4CF09F004509C
:1038F4000702F350092605500602F350092608C0B2
:1039040004F009C005F01200CF0EC116C150F00B2F
:103914000E09C16EC050F80B0509C06EC050C70B2C
:103924001009C06EC08EC2801200046E04C0AFFFC6
:10393400AC94B896AC98AB8EAC9CAC8AAB9CAB8880
:103944009E9A9D8A9F8A1200046EACA2ACEF1CF072
:10395400AEEF1CF0A7EF1CF004C0ADFF1200D08E38
:08396400F28CF28E1200120039
:020000040020DA
:08000000FFFFFFFFFFFFFFFF00
:020000040030CA
:0E000000000C181EFF8180FF0FC00FE00F40A4
:00000001FF
