:020000040000FA
:040000002AEF05F0EE
:10080000004C4120686F72612065733A000090ECE3
:1008100005F078EC05F0000E956E61EC04F0000E2A
:10082000046E000E036E000E066E000E056E60EC88
:1008300005F0010E036E080E046E45EC05F007ECA2
:1008400005F0000E046E010E036E000E066E000E23
:10085000056E60EC05F012380F0B0F0B300FD2EC69
:1008600004F012500F0B300FD2EC04F03A0ED2EC21
:1008700004F011380F0B0F0B300FD2EC04F01150B5
:100880000F0B300FD2EC04F03A0ED2EC04F010381B
:100890000F0B0F0B300FD2EC04F010500F0B300F7A
:1008A000D2EC04F0030E086E8A0E076E560EE82E88
:1008B000FED7072EFCD7082EFAD71FEF04F000EF63
:1008C00000F00AC002F00F0E021609C003F00F0E6E
:1008D00003160338F00B0210126E0CC002F00F0E5C
:1008E00002160BC003F00F0E03160338F00B0210B4
:1008F000116E0EC002F00F0E02160DC003F00F0EA7
:1009000003160338F00B0210106EE0EC05F0D00E69
:10091000B6EC05F0C2EC05F0000EB6EC05F0105098
:10092000B6EC05F01150B6EC05F01250B6EC05F03F
:10093000D7EC05F01200026E8C500F0B8C6E02503B
:10094000F00B8C108C6E8C94070E016E7D0EE82ED1
:10095000FED7012EFCD700F08C86070E016E7D0EAF
:10096000E82EFED7012EFCD700F08C960F0E8C16C9
:100970000238F00BF00B8C128C94070E016E7D0E7A
:10098000E82EFED7012EFCD700F08C86070E016EF4
:100990007D0EE82EFED7012EFCD700F08C960F0EB0
:1009A0008C161200026E0F0E8C160250F00B8C1279
:1009B0008C84070E016E7D0EE82EFED7012EFCD72B
:1009C00000F08C86070E016E7D0EE82EFED7012EFC
:1009D000FCD700F08C960F0E8C160238F00BF00B43
:1009E0008C128C84070E016E7D0EE82EFED7012E30
:1009F000FCD700F08C86070E016E7D0EE82EFED728
:100A0000012EFCD700F08C960F0E8C161200E0EC35
:100A100005F0D00EB6EC05F0C2EC05F0000EB6EC19
:100A200005F0CEEC05F0D10EB6EC05F0C2EC05F009
:100A30009EEC05F0106EC2EC05F09EEC05F0116E18
:100A4000C2EC05F09EEC05F0126EAAEC05F0D7ECB6
:100A500005F01200D20EF66E0B0EF76E000EF86E59
:100A600000EE09F010EE06F00900F5CFEEFFE550BC
:100A7000E150FAE1126A116A106A0F6A000EF86E0C
:100A8000080EF76E000107EF04F051EF05F003C008
:100A9000F6FF04C0F7FF0800F550D2EC04F0034A5B
:100AA000042A03C0F6FF04C0F7FF0800F550000950
:100AB000D8A45DEF05F05FEF05F047EF05F01200F9
:100AC00004BE6BEF05F0045008E10304D8A06BEFFF
:100AD00005F06DEF05F073EF05F00550C00F9BECCE
:100AE00004F077EF05F00550800F9BEC04F0120046
:100AF000000E956E300E9BEC04F0300E9BEC04F073
:100B0000320E9BEC04F0280E9BEC04F00C0E9BECD8
:100B100004F0010E9BEC04F0060E9BEC04F01200B6
:100B200093829380310EC86EC79CC78EC650F00B5F
:100B30000809C66EC68A000EC56E12009E96C5864E
:100B40009EA6A5EF05F0A7EF05F0A0EF05F09E9695
:100B5000C95012009E96C58AC5889EA6B2EF05F0C0
:100B6000B4EF05F0ADEF05F09E961200016E01C0E6
:100B7000C9FF9EA6BEEF05F0C0EF05F0B9EF05F086
:100B80009E9612009E96C59AC5889EA6CAEF05F04D
:100B9000CCEF05F0C5EF05F09E961200C582C5B2F8
:100BA000D4EF05F0D6EF05F0CFEF05F01200C584C5
:100BB000C5B4DDEF05F0DFEF05F0D8EF05F012006A
:100BC000C580C5B0E6EF05F0E8EF05F0E1EF05F010
:080BD0001200323335393537CC
:020000040020DA
:08000000FFFFFFFFFFFFFFFF00
:020000040030CA
:0E000000000C181EFF8180FF0FC00FE00F40A4
:00000001FF
