:020000040000FA
:040000009EEF00F07F
:06000800198237ED05F03E
:100018001980D8CF0EF0E8CF0FF0E0CF10F0014AEA
:10002800022A0A0E01180210D8A41DEF00F01FEFD3
:1000380000F025EF00F0000E026E000E016E034A7C
:10004800042A060E03180410D8A42DEF00F02FEF91
:1000580000F035EF00F0000E046E000E036E054A46
:10006800062A0A0E05180610D8A43DEF00F03FEF47
:1000780000F045EF00F0000E066E000E056E074A10
:10008800082A060E07180810D8A44DEF00F04FEF05
:1000980000F055EF00F0000E086E000E076E094ADA
:1000A8000A2A0A0E09180A10D8A45DEF00F05FEFBB
:1000B80000F065EF00F0000E0A6E000E096E0B4AA4
:1000C8000C2A040E09180A10D8A46DEF00F06FEF7F
:1000D80000F081EF00F0020E0B180C10D8A477EF97
:1000E80000F079EF00F081EF00F0000E0A6E000ECC
:1000F800096E000E0C6E000E0B6E800ECF6E000E99
:10010800CE6E8CB08AEF00F08DEF00F0010E8EEF0E
:1001180000F0000EFF0A0D6E8C500D18FE0B0D1826
:100128008C6E9E9010C0E0FF0FC0E8FF0EC0D8FF95
:0801380019901000DAEF04F049
:1008000000486F72613A0000000E956E0BEC05F027
:10081000000E146E000E136E000E166E000E156E96
:10082000F3EC04F0010E136E080E146EBFEC04F02E
:1008300023EC05F033EC05F0000E146E010E136E80
:10084000000E166E050E156EF3EC04F00B50300F13
:100850008AEC04F00950300F8AEC04F03A0E8AEC6E
:1008600004F00750300F8AEC04F00550300F8AEC8A
:1008700004F03A0E8AEC04F00350300F8AEC04F0D6
:100880000150300F8AEC04F0030E186E8A0E176EBA
:10089000560EE82EFED7172EFCD7182EFAD71CEFCF
:1008A00004F09EEF00F0126E8C500F0B8C6E125005
:1008B000F00B8C108C6E8C94070E116E7D0EE82E52
:1008C000FED7112EFCD700F08C86070E116E7D0E20
:1008D000E82EFED7112EFCD700F08C960F0E8C164A
:1008E0001238F00BF00B8C128C94070E116E7D0EEB
:1008F000E82EFED7112EFCD700F08C86070E116E65
:100900007D0EE82EFED7112EFCD700F08C960F0E30
:100910008C161200126E0F0E8C161250F00B8C12E9
:100920008C84070E116E7D0EE82EFED7112EFCD79B
:1009300000F08C86070E116E7D0EE82EFED7112E6C
:10094000FCD700F08C960F0E8C161238F00BF00BC3
:100950008C128C84070E116E7D0EE82EFED7112EA0
:10096000FCD700F08C86070E116E7D0EE82EFED7A8
:10097000112EFCD700F08C960F0E8C161200CBEFC8
:1009800004F013C0F6FF14C0F7FF0800F5508AEC1E
:1009900004F0134A142A13C0F6FF14C0F7FF08002E
:1009A000F5500009D8A4D7EF04F0D9EF04F0C1EF57
:1009B00004F012005A0EF66E0A0EF76E000EF86E74
:1009C00000EE01F010EE0CF00900F5CFEEFFE5505F
:1009D000E150FAE119901992000EF86E080EF76EC8
:1009E000000104EF04F014BEFEEF04F0145008E11F
:1009F0001304D8A0FEEF04F000EF05F006EF05F0B9
:100A00001550C00F53EC04F00AEF05F01550800F9D
:100A100053EC04F01200000E956E300E53EC04F00F
:100A2000300E53EC04F0320E53EC04F0280E53EC6D
:100A300004F00C0E53EC04F0010E53EC04F0060E1F
:100A400053EC04F01200800ECF6E000ECE6E0F0E2F
:100A5000CD6E9D809E909F901200080005000900B9
:100A6000050009000100D08EF28CF28E1200060003
:040A700019921100C6
:020000040020DA
:08000000FFFFFFFFFFFFFFFF00
:020000040030CA
:0E000000000C181EFF8180FF0FC00FE00F40A4
:00000001FF
