:020000040000FA
:0400000037EF00F0E6
:06000800068259ED00F034
:100018000680D8CF02F0E8CF03F0E0CF04F0052A3D
:10002800630E05641AEF00F01CEF00F02CEF00F0EF
:100038008CB021EF00F024EF00F0010E25EF00F066
:10004800000EFF0A016E8C500118FE0B01188C6E11
:10005800EB0ED66EF29404C0E0FF03C0E8FF02C0C6
:10006800D8FF069010004FEF00F0D59AD58CD586B2
:10007800070ED512EB0ED66EF28AF294F194D58E55
:100088001200000E956E39EC00F055EC00F04BEFC5
:1000980000F037EF00F0056A06900692000145EF80
:1000A80000F0D08EF28CF28E12000600069211003B
:020000040020DA
:08000000FFFFFFFFFFFFFFFF00
:020000040030CA
:0E000000000C181EFF8180FF0FC00FE00F40A4
:00000001FF
