:020000040000FA
:040000003CEF00F0E1
:060008005F8269ED15F0B6
:100018005F80D8CF51F1E8CF52F1E0CF53F15E2A9B
:10002800630E5E641AEF00F01CEF00F02FEF00F093
:100038008CB021EF00F024EF00F0010E25EF00F066
:10004800000EFF0A0101506F8C505019FE0B501919
:100058008C6E000E5E6E000ED76EEC0ED66EF294AD
:1000680053C1E0FF52C1E8FF51C1D8FF5F901000B3
:040078004DEF1CF03C
:100800000045733A2025302E3266205600494E4668
:10081000004E414E00696E66006E616E006C6600AF
:0108200000D7
:10082200000E00017B6F000E7A6F36C08CF037C06D
:100832008DF038C08EF039C08FF08FBF25EF04F0F5
:1008420023EF04F03BEF04F0000E7B6F010E7A6F92
:100852008CC001F08DC002F08EC003F08FC004F096
:100862009BEC1BF001C08CF002C08DF003C08EF037
:1008720004C08FF0000E0001936F000E926FC6C08D
:100882007FF0C7C080F07A517B11D8A44BEF04F0FF
:100892004DEF04F054EF04F0CAA552EF04F054EF08
:1008A20004F06EEF04F07A517B11D8A45BEF04F0F0
:1008B2005DEF04F063EF04F0000E656F2B0E646FC2
:1008C20067EF04F0000E656F2D0E646F64C000F1D7
:1008D200924B932B7F07D8A080078CC001F08DC06C
:1008E20002F08EC003F08FC004F0F2EC16F00104A7
:1008F2000210D8A47FEF04F081EF04F0D8EF04F0E7
:10090200BF0E3B6EFF0E3C6E3A503D6E3E6A3B5050
:100912003D263C503E223E500AE11A0E3D5CD8A0D4
:1009220095EF04F098EF04F0010E99EF04F0000E39
:100932000001666F676B66516711D8B4A3EF04F0CC
:10094200A5EF04F0B3EF04F0000E9225016E010E44
:100952009321026E0D0E036E080E046EBAEC1AF0AD
:10096200BFEF04F0000E9225016E010E9321026E7C
:10097200150E036E080E046EBAEC1AF00001FD0E9D
:100982007F27FF0E802334C011F035C012F0000E15
:10099200136E010E146E7FC015F080C016F041EC8C
:1009A20018F011C034F012C035F0E8EF09F08CC035
:1009B20001F08DC002F08EC003F08FC004F0F2ECA3
:1009C20016F001500210D8A4E9EF04F0EBEF04F0A6
:1009D2002BEF05F0BF0E3B6EFF0E3C6E3A503D6EA4
:1009E2003E6A3B503D263C503E223E500AE11A0EE2
:1009F2003D5CD8A0FFEF04F002EF05F0010E03EF1B
:100A020005F0000E0001686F696B68516911D8B476
:100A12000DEF05F00FEF05F01DEF05F0000E92252A
:100A2200016E010E9321026E110E036E080E046E0A
:100A3200BAEC1AF0BFEF04F0000E9225016E010E1F
:100A42009321026E190E036E080E046EBAEC1AF0B0
:100A5200BFEF04F0000E0001946F000E956F800E40
:100A6200966F3F0E976F000E916F000E906F8CC0C5
:100A720001F08DC002F08EC003F08FC004F0000EB2
:100A8200056E000E066E000E076E000E086E5EEC1E
:100A920019F0D8B04FEF05F051EF05F0D4EF05F0A3
:100AA20070EF05F094C00FF095C010F096C011F0F1
:100AB20097C012F0000E136E000E146E200E156E0B
:100AC200410E166EDCEC0EF00FC094F010C095F0E3
:100AD20011C096F012C097F00001904B912B8CC080
:100AE20028F08DC029F08EC02AF08FC02BF0000EA6
:100AF200136E000E146E200E156E410E166E94C00B
:100B02000FF095C010F096C011F097C012F0DCEC17
:100B12000EF00FC02CF010C02DF011C02EF012C03C
:100B22002FF070EC16F0D8B099EF05F09BEF05F0BE
:100B320053EF05F0BBEF05F094C001F095C002F051
:100B420096C003F097C004F0000E056E000E066E0C
:100B5200200E076E410E086EF1EC10F001C094F009
:100B620002C095F003C096F004C097F00001900710
:100B7200D8A091078CC028F08DC029F08EC02AF031
:100B82008FC02BF094C02CF095C02DF096C02EF0A3
:100B920097C02FF070EC16F0D8A0D2EF05F0D4EF8A
:100BA20005F09DEF05F03AC007F0086A8AEC1AF0EA
:100BB20007500001816F81C07EF0670E8119D8A4B1
:100BC200E5EF05F0E7EF05F00DEF06F0C851C911AA
:100BD200D8A4EEEF05F0F0EF05F0F4EF05F0000E0B
:100BE200C96F010EC86FC9BF01EF06F0C95106E116
:100BF200C805D8B0FFEF05F001EF06F007EF06F0E9
:100C0200000E7D6F060E7C6F16EF06F0C8C07CF0FA
:100C1200C9C07DF016EF06F0C9BF12EF06F014EF5F
:100C220006F001EF06F007EF06F0670E8119D8A46F
:100C32001DEF06F01FEF06F04EEF06F091AF2DEF1D
:100C420006F0FC0E905DFF0E9159D8A02BEF06F036
:100C52002DEF06F04CEF06F0FF0E3B6EFF0E3C6EE2
:100C62007CC03DF07DC03EF03B503D263C503E22D4
:100C720090513D5C3E50800A3F6E9151800A3F5830
:100C8200D8A046EF06F048EF06F04CEF06F0660EED
:100C92007E6F4EEF06F0650E7E6F7CC074F07DC0F5
:100CA20075F0670E8119D8A459EF06F05BEF06F0D4
:100CB2006BEF06F0660E7E19D8A462EF06F064EFC1
:100CC20006F06DEF06F091BF6BEF06F069EF06F0EC
:100CD2006DEF06F0744B752B660E7E19D8A474EF77
:100CE20006F076EF06F096EF06F091BF7DEF06F084
:100CF2007BEF06F089EF06F0000E946F000E956F01
:100D0200800E966F3F0E976F000E916F000E906FE0
:100D1200670E8119D8B490EF06F092EF06F096EFC5
:100D220006F09051742791517523000E8B6F000EBF
:100D32008A6F8CC082F08DC083F08EC084F08FC029
:100D420085F094C060F095C061F096C062F097C0E3
:100D520063F027EF07F082C001F083C002F084C085
:100D620003F085C004F094C005F095C006F096C06B
:100D720007F097C008F0F1EC10F001C01AF002C0C1
:100D82001BF003C01CF004C01DF0BEEC12F01AC030
:100D920086F01BC087F01CC088F01DC089F086C099
:100DA20001F087C002F088C003F089C004F0EDECC6
:100DB20015F001C078F002C079F082C028F083C03B
:100DC20029F084C02AF085C02BF094C013F095C09E
:100DD20014F096C015F097C016F086C00FF087C0C9
:100DE20010F088C011F089C012F0DCEC0EF00FC0D8
:100DF2002CF010C02DF011C02EF012C02FF03AECE2
:100E02001BF028C082F029C083F02AC084F02BC0D6
:100E120085F094C001F095C002F096C003F097C02F
:100E220004F0000E056E000E066E200E076E410ED7
:100E3200086EF1EC10F001C094F002C095F003C00E
:100E420096F004C097F000018A4B8B2B74518A5D97
:100E52008B51800A3B6E7551800A3B58D8A034EF03
:100E620007F036EF07F0ACEF06F094C00FF095C034
:100E720010F096C011F097C012F0000E136E000E23
:100E8200146EA00E156E400E166EDCEC0EF00FC046
:100E920086F010C087F011C088F012C089F082C0BD
:100EA20028F083C029F084C02AF085C02BF086C0C8
:100EB2002CF087C02DF088C02EF089C02FF070EC86
:100EC20016F0D8B067EF07F069EF07F074EF07F09C
:100ED200000E0001866F000E876F000E886F000EF5
:100EE200896F9DEF07F082C001F083C002F084C0D9
:100EF20003F085C004F086C005F087C006F088C004
:100F020007F089C008F05EEC19F0D8A08BEF07F06B
:100F12008DEF07F09DEF07F0000178B193EF07F036
:100F220095EF07F09DEF07F0000E866F000E876FBA
:100F3200000E886F000E896F8CC001F08DC002F028
:100F42008EC003F08FC004F086C005F087C006F0A3
:100F520088C007F089C008F07CEC0CF001C082F078
:100F620002C083F003C084F004C085F060C094F036
:100F720061C095F062C096F063C097F0650E000103
:100F82007E19D8B4C7EF07F0C9EF07F0CFEF07F02B
:100F920090C076F091C077F0D3EF07F0000E776F34
:100FA200000E766F000E736F000E726F000E716F7F
:100FB200000E706F000E8B6F000E8A6FCEEF08F07E
:100FC20082C001F083C002F084C003F085C004F047
:100FD20094C005F095C006F096C007F097C008F0DF
:100FE200F1EC10F001C01AF002C01BF003C01CF0BB
:100FF20004C01DF0BEEC12F01AC086F01BC087F0D0
:101002001CC088F01DC089F086C001F087C002F0C4
:1010120088C003F089C004F0EDEC15F001C078F04F
:1010220002C079F00001CAB919EF08F01BEF08F00D
:1010320038EF08F078517911D8A422EF08F024EFA4
:1010420008F038EF08F0670E8119D8A42BEF08F0EA
:101052002DEF08F038EF08F077BF34EF08F032EFE9
:1010620008F038EF08F0704B712B82EF08F07251E4
:101072007311D8A43FEF08F041EF08F06BEF08F0CE
:1010820077BF48EF08F046EF08F06BEF08F0000E6C
:101092009225D96E010E9321DA6E2E0EDF6E924BDF
:1010A200932B7F07D8A08007000E736F010E726F1B
:1010B2006BEF08F0000E9225D96E010E9321DA6EC5
:1010C200300EDF6E924B932B7F07D8A080077007FC
:1010D200D8A0710770517111D8A472EF08F074EFA3
:1010E20008F05BEF08F0000E9225D96E010E9321F5
:1010F200DA6E7851300FDF6E924B932B7F07D8A0B8
:10110200800782C028F083C029F084C02AF085C0FD
:101112002BF094C013F095C014F096C015F097C050
:1011220016F086C00FF087C010F088C011F089C099
:1011320012F0DCEC0EF00FC02CF010C02DF011C03C
:101142002EF012C02FF03AEC1BF028C082F029C01A
:1011520083F02AC084F02BC085F094C001F095C0C2
:1011620002F096C003F097C004F0000E056E000E68
:10117200066E200E076E410E086EF1EC10F001C0F3
:1011820094F002C095F003C096F004C097F00001FD
:101192007607D8A077078A4B8B2B74518A5D8B51C7
:1011A200800A3B6E7551800A3B58D8B0DBEF08F0DD
:1011B200DDEF08F0EBEF08F093BFE9EF08F0935191
:1011C20009E14B0E925DD8A0E9EF08F0EBEF08F0D1
:1011D200E1EF07F072517311D8A4F2EF08F0F4EFC7
:1011E20008F005EF09F0CAA9F9EF08F0FBEF08F0E3
:1011F20005EF09F0000E9225D96E010E9321DA6EE9
:101202002E0EDF6E924B932B000E9225D96E010E9D
:101212009321DA6E000EDF6E650E7E19D8A414EFEC
:1012220009F016EF09F0C4EF04F0000E8B6F4F0EB9
:101232008A6F000E8A25D96E010E8B21DA6E000E9E
:10124200DF6E000E7B6F000E7A6F91BF2DEF09F0FB
:101252002BEF09F035EF09F0000E7B6F010E7A6F6C
:10126200906D911FD8B0912B000E7D6F020E7C6F96
:1012720066EF09F08A07D8A08B07000E8A25D96E7F
:10128200010E8B21DA6E90C001F091C002F0000EC7
:10129200046E0A0E036E06EC19F00150300FDF6E79
:1012A20090C001F091C002F0000E046E0A0E036EAF
:1012B200A4EC18F001C090F002C091F000017C078C
:1012C200D8A07D077F07D8A0800790519111D8A49C
:1012D2006DEF09F06FEF09F03BEF09F07DBF7CEF96
:1012E20009F07D5106E17C05D8B07AEF09F07CEF78
:1012F20009F03BEF09F08A07D8A08B077A517B11DE
:10130200D8A486EF09F088EF09F08EEF09F0000EFD
:101312006B6F2B0E6A6F92EF09F0000E6B6F2D0E42
:101322006A6F000E8A25D96E010E8B21DA6E6AC0B1
:10133200DFFF7F07D8A080078A07D8A08B07BF0EE0
:101342003B6EFF0E3C6E3A503D6E3E6A3B503D2670
:101352003C503E223E500AE11A0E3D5CD8A0B4EF4A
:1013620009F0B7EF09F0010EB8EF09F0000E6E6F49
:101372006F6B6E516F11D8A4C1EF09F0C3EF09F082
:10138200C9EF09F0000E6D6F650E6C6FCDEF09F0BD
:10139200000E6D6F450E6C6F000E8A25D96E010E20
:1013A2008B21DA6E6CC0DFFF7F07D8A08007000EAA
:1013B2009225016E010E9321026E000E8A25036EA4
:1013C200010E8B21046EBAEC1AF0C4EF04F0120085
:1013D20042C0D9FF43C0DAFFDECFF6FFDDCFF7FF11
:1013E2000800F550250AD8A4F9EF09F0FBEF09F03F
:1013F20060EF0CF042C0D9FF43C0DAFFDE2A000ED4
:10140200DD22000E0001C76F000EC66FC6C0CAF013
:10141200C7C0CBF0C869C969000E4B6E000E4A6E98
:101422005EEF0AF00001CA8142C0D9FF43C0DAFF71
:10143200DE2A000EDD225EEF0AF00001CA8315EFFC
:101442000AF00001CA8515EF0AF00001CA8715EFFC
:101452000AF00001CA8915EF0AF0000E4B6E010E68
:101462004A6E5EEF0AF042C0D9FF43C0DAFFDECF18
:10147200F6FFDDCFF7FF0800F550466E476A47508A
:10148200000AD8B447EF0AF02EEF0AF04650200ABD
:10149200D8B426EF0AF0030AD8B42AEF0AF0080AF1
:1014A200D8B422EF0AF0060AD8B413EF0AF01D0AE4
:1014B200D8B41EEF0AF02EEF0AF04A504B10D8B4FF
:1014C20065EF0AF067EF0AF034EF0AF00001CAA1F3
:1014D2006DEF0AF06FEF0AF070EF0AF0CA9342C0A4
:1014E200D9FF43C0DAFFDECFF6FFDDCFF7FF0800FA
:1014F200F5502E0AD8A480EF0AF082EF0AF0FFEF2F
:101502000AF0000EC96F000EC86F42C0D9FF43C077
:10151200DAFFDE2A000EDD2242C0D9FF43C0DAFF25
:10152200DECFF6FFDDCFF7FF0800F5502A0AD8A478
:101532009DEF0AF09FEF0AF0BCEF0AF042C0D9FF1C
:1015420043C0DAFFDE2A000EDD2244C0D9FF45C0C7
:10155200DAFFDFCF46F0020EDE26DFCF47F0000EC5
:10156200DD2246C0D9FF47C0DAFFDECFC8F0DDCFAB
:10157200C9F0FFEF0AF042C0D9FF43C0DAFFDECF65
:1015820008F0DDCF09F0A1EC14F008C0C8F009C0E2
:10159200C9F0D3EF0AF042C0D9FF43C0DAFFDE2A16
:1015A200000EDD22D00E466EFF0E476E42C0D9FFFE
:1015B20043C0DAFFDECFF6FFDDCFF7FF0800F550BC
:1015C200486E496A465048264750492249500AE126
:1015D2000A0E485CD8A0F0EF0AF0F3EF0AF0010E11
:1015E200F4EF0AF0000E4C6E4D6A4C504D10D8A428
:1015F200FDEF0AF0FFEF0AF0CCEF0AF042C0D9FF8C
:1016020043C0DAFFDECFF6FFDDCFF7FF0800F5506B
:10161200076E086A8AEC1AF00750546E5450D8B418
:1016220015EF0BF017EF0BF04FEF0BF042C0D9FFA5
:1016320043C0DAFFDECF46F0DDCF47F0010E46268B
:10164200000E472246C0F6FF47C0F7FF0800F550DC
:10165200076E086A8AEC1AF00750556E5550D8B4D6
:1016620035EF0BF037EF0BF04FEF0BF042C0D9FF25
:1016720043C0DAFFDECF46F0DDCF47F0020E46264A
:10168200000E472246C0F6FF47C0F7FF0800F5509C
:10169200076E086A8AEC1AF00750566E660E5418E6
:1016A200D8A456EF0BF058EF0BF098EF0BF042C0B6
:1016B200D9FF43C0DAFFDECFF6FFDDCFF7FF080028
:1016C200F5CF57F042C0D9FF43C0DAFFDE2A000E41
:1016D200DD2244C0D9FF45C0DAFFDFCF46F0040E59
:1016E200DE26DFCF47F0000EDD2246C0D9FF47C01D
:1016F200DAFFDECF50F0DECF51F0DECF52F0DECF98
:1017020053F040C034F041C035F050C036F051C003
:1017120037F052C038F053C039F057C03AF011ECEC
:1017220004F034C040F035C041F07BEF0CF0540EB1
:10173200016E000E026E1D0E036E080E046E000E88
:10174200066E020E056E71EC17F001500210D8A45D
:10175200ADEF0BF0AFEF0BF02AEF0CF042C0D9FF68
:1017620043C0DAFFDECF46F0DDCF47F0010E46265A
:10177200000E472246C0F6FF47C0F7FF0800F5CF2C
:1017820057F0BF0E466EFF0E476E42C0D9FF43C0F0
:10179200DAFFDECFF6FFDDCFF7FF0800F550486E27
:1017A200496A465048264750492249500AE11A0ED2
:1017B200485CD8A0DFEF0BF0E2EF0BF0010EE3EF95
:1017C2000BF0000E4E6E4F6A4E504F10D8B4ECEF35
:1017D2000BF0EEEF0BF008EF0CF044C0D9FF45C060
:1017E200DAFFDFCF46F0040EDE26DFCF47F0000E31
:1017F200DD2246C0D9FF47C0DAFFDECF50F0DECF90
:1018020051F0DECF52F0DECF53F020EF0CF044C0A7
:10181200D9FF45C0DAFFDFCF46F0040EDE26DFCF68
:1018220047F0000EDD2246C0D9FF47C0DAFFDECF07
:1018320050F0DECF51F0DECF52F0DECF53F0020E89
:1018420042C0D9FF43C0DAFFDE26000EDD2282EF5E
:101852000BF042C0D9FF43C0DAFFDECFF6FFDDCF87
:10186200F7FF0800F550250AD8A43AEF0CF03CEF38
:101872000CF053EF0CF042C0D9FF43C0DAFFDE2A6E
:10188200000EDD22000E026E250E016E40C003F036
:1018920041C004F0DCEC17F0000E416E010E406E08
:1018A2007BEF0CF042C0D9FF43C0DAFFDE2A000E04
:1018B200DD22000E416E000E406E7BEF0CF042C046
:1018C200D9FF43C0DAFFDECFF6FFDDCFF7FF080016
:1018D200F550016E026A40C003F041C004F0DCEC36
:1018E20017F042C0D9FF43C0DAFFDE2A000EDD2224
:1018F2004DEF0CF012000450800B0D6E04500424C6
:101902000F6E03AE87EF0CF089EF0CF08AEF0CF04C
:101912000F800F50D8B490EF0CF092EF0CF0A7EFBD
:101922000CF00F28D8A498EF0CF09AEF0CF0A2EF6D
:101932000CF0000E016E000E026E000E036E000E21
:10194200046E038E000E046EAFEF0CF0000E016EFB
:10195200000E026E000E036E000E046E0850800B25
:101962000E6E0D500E18D8B4B9EF0CF0BBEF0CF0A0
:10197200BCEF0CF00D8C085008240E6E07AEC4EFBD
:101982000CF0C6EF0CF0C7EF0CF00E800E50D8B47E
:10199200CDEF0CF0CFEF0CF0E4EF0CF00E28D8A452
:1019A200D5EF0CF0D7EF0CF0DFEF0CF0000E056E68
:1019B200000E066E000E076E000E086E078E000EF9
:1019C200086EECEF0CF0000E056E000E066E000EB7
:1019D200076E000E086E0F500E5CD8B0F3EF0CF0DD
:1019E200F5EF0CF01CEF0DF00DACFAEF0CF0FCEF84
:1019F2000CF0FEEF0CF0800E0D1A0FC010F00EC0AE
:101A02000FF010C00EF001C010F005C001F010C0C0
:101A120005F002C010F006C002F010C006F003C0CC
:101A220010F007C003F010C007F004C010F008C0A7
:101A320004F010C008F0000E106E0F500EC009F036
:101A42000A6A095E000E0A5A0ABE31EF0DF00A5008
:101A520009E11A0E095CD8A031EF0DF033EF0DF059
:101A62006AEF0DF00150021003100410D8A43CEFED
:101A72000DF03FEF0DF0010E40EF0DF0000E106E75
:101A8200000E016E000E026E000E036E000E046E5A
:101A92000EC00FF073EF0DF010A052EF0DF054EFE7
:101AA2000DF05AEF0DF0D89010300109106E5CEF76
:101AB2000DF0D890103201A061EF0DF063EF0DF040
:101AC20064EF0DF0108E043404320332023201321C
:101AD2000F2A0E500F5CD8A071EF0DF073EF0DF0CE
:101AE2004DEF0DF00DBC78EF0DF07AEF0DF0BAEF7F
:101AF2000DF00F50D8A480EF0DF082EF0DF08CEFB7
:101B02000DF0000E016E000E026E000E036E000E4E
:101B1200046EDBEF0EF0055001260650022207503C
:101B220003220850042204A099EF0DF09BEF0DF060
:101B320047EF0EF010A0A0EF0DF0A2EF0DF0A8EF0E
:101B42000DF0D89010300109106EAAEF0DF0D89068
:101B5200103201A0AFEF0DF0B1EF0DF0B2EF0DF0CA
:101B6200108E043404320332023201320F2A47EF5C
:101B72000EF00550015C06500258075003580450FD
:101B8200800A096E0850800A0958D8B0CBEF0DF0D0
:101B9200CDEF0DF0F8EF0DF00150055C096E02502B
:101BA20006580A6E035007580B6E045008580C6E04
:101BB200FF0E0924016EFF0E0A20026EFF0E0B209B
:101BC200036EFF0E0C20046E800E0D1A106C105066
:101BD200D8A4EEEF0DF0F0EF0DF000EF0EF0010ED5
:101BE2000126000E02220322042200EF0EF005500D
:101BF200015E0650025A0750035A0850045A015017
:101C0200021003100410D8A409EF0EF00BEF0EF02F
:101C120040EF0EF01050D8A411EF0EF013EF0EF0BB
:101C220040EF0EF0000E016E000E026E000E036E0B
:101C3200000E046EDBEF0EF0D8900136023603364A
:101C4200043610AE27EF0EF029EF0EF02AEF0EF059
:101C5200018010A02FEF0EF031EF0EF035EF0EF0F5
:101C6200D880103637EF0EF0D89010360F50D8B417
:101C72003DEF0EF03FEF0EF040EF0EF00F0603AE19
:101C820045EF0EF047EF0EF01DEF0EF0000E0E6E58
:101C920010AE4EEF0EF050EF0EF068EF0EF010C0E7
:101CA20009F07F0E0916D8B459EF0EF05BEF0EF073
:101CB2005FEF0EF0010E0E6E68EF0EF001A064EF02
:101CC2000EF066EF0EF068EF0EF05BEF0EF00E50C6
:101CD200D8B46EEF0EF070EF0EF09BEF0EF0010E27
:101CE2000126000E02220322042204A07BEF0EF042
:101CF2007DEF0EF09BEF0EF001C009F002C00AF07A
:101D020003C00BF004C00CF00C340C320B320A325C
:101D1200093209C001F00AC002F00BC003F00CC086
:101D220004F00F28D8B498EF0EF09AEF0EF09BEF64
:101D32000EF00F2A0F28D8B4A1EF0EF0A3EF0EF089
:101D4200ABEF0EF00F50D8A4A9EF0EF0ABEF0EF0F0
:101D5200BDEF0EF0000E016E000E026E000E036E5D
:101D6200000E046E0F50D8A4B9EF0EF0BBEF0EF0C8
:101D7200BDEF0EF0000E0D6E0FA0C2EF0EF0C4EF1D
:101D82000EF0C7EF0EF0038EC8EF0EF0039ED89050
:101D92000F30046E0DAED0EF0EF0D2EF0EF0D3EF97
:101DA2000EF0048E01C001F002C002F003C003F085
:101DB20004C004F012001250800B1B6E1250122449
:101DC200216E11AEE7EF0EF0E9EF0EF0EAEF0EF042
:101DD20021802150D8B4F0EF0EF0F2EF0EF005EFB3
:101DE2000FF02128D8A4F8EF0EF0FAEF0EF002EF70
:101DF2000FF0000E0F6E000E106E000E116E000E30
:101E0200126E118E0DEF0FF0000E0F6E000E106E9F
:101E1200000E116E000E126E1650800B1B1A165019
:101E22001624206E15AE18EF0FF01AEF0FF01BEF0D
:101E32000FF020802050D8B421EF0FF023EF0FF0E5
:101E420036EF0FF02028D8A429EF0FF02BEF0FF078
:101E520033EF0FF0000E136E000E146E000E156EAF
:101E6200000E166E158E3EEF0FF0000E136E000E72
:101E7200146E000E156E000E166E2050D8B444EF8C
:101E82000FF046EF0FF04EEF0FF02150D8A44CEFB9
:101E92000FF04EEF0FF058EF0FF0000E0F6E000E26
:101EA200106E000E116E000E126EF0EF10F0155053
:101EB2000F02F3CF26F0F4CF27F026501C6E1D6AD6
:101EC2001E6A1F6A2750226E236A246A256A1450EA
:101ED2001002F3CF26F0F4CF27F026501C26000E76
:101EE2001D221E221F2227502226000E23222422D8
:101EF200252213501102F3CF26F0F4CF27F02650FB
:101F02001C26000E1D221E221F2227502226000EF2
:101F12002322242225221EC01FF01DC01EF01CC039
:101F22001DF01C6A13501002F3CF26F0F4CF27F0F5
:101F320026501C2627501D22000E1E22000E1F2294
:101F420014500F02F3CF26F0F4CF27F026501C26B0
:101F520027501D22000E1E22000E1F221EC01FF03F
:101F62001DC01EF01CC01DF01C6A13500F02F3CFDF
:101F720026F0F4CF27F026501C2627501D22000EF3
:101F82001E22000E1F2215501002F3CF26F0F4CFAE
:101F920027F02650222627502322000E2422000E4C
:101FA200252214501102F3CF26F0F4CF27F0265049
:101FB200222627502322000E2422000E252215500D
:101FC2001102F3CF26F0F4CF27F02650176E2750D8
:101FD200186E196A1A6A19C01AF018C019F017C0D7
:101FE20018F0176A1750222618502322195024225B
:101FF2001A5025221CC017F01DC018F01EC019F07F
:102002001FC01AF0190E0BEF10F0D8901A321932C5
:1020120018321732E82E06EF10F017502226185009
:102022002322195024221A5025221EC01FF01DC03F
:102032001EF01CC01DF01C6A205021C017F0186A47
:102042001726000E1822820E1724266EFF0E182065
:10205200276E41EF10F0D8902236233624362536EB
:102062001FAE36EF10F038EF10F039EF10F022808B
:10207200D8901C361D361E361F362606D8A02706D7
:1020820024AE46EF10F048EF10F02CEF10F0000EE7
:10209200206E1FAE4FEF10F051EF10F075EF10F001
:1020A200FF0E1C14176EFF0E1D14186EFF0E1E1469
:1020B200196E7F0E1F141A6E1750181019101A106D
:1020C200D8B466EF10F068EF10F06CEF10F0010E6C
:1020D200206E75EF10F022A071EF10F073EF10F088
:1020E20075EF10F068EF10F02050D8B47BEF10F0CD
:1020F2007DEF10F0A1EF10F0010E2226000E232238
:102102002422252225A088EF10F08AEF10F0A1EFFB
:1021120010F022C017F023C018F024C019F025C017
:102122001AF01A341A3219321832173217C022F042
:1021320018C023F019C024F01AC025F0264A272A15
:1021420027BEACEF10F0275008E12628D8A0ACEF4C
:1021520010F0AEEF10F0B8EF10F0000E226E000E8D
:10216200236E800E246E7F0E256EE6EF10F027BEE2
:10217200C5EF10F0275006E12604D8B0C3EF10F0E7
:10218200C5EF10F0D1EF10F0000E226E000E236E9C
:10219200000E246E000E256E000E1B6EE6EF10F090
:1021A20026C021F0FF0E2216FF0E23167F0E2416E4
:1021B200000E251621A0E0EF10F0E2EF10F0E3EFA1
:1021C20010F0248ED8902130256E1B50251222C08B
:1021D2000FF023C010F024C011F025C012F012003D
:1021E2000450800B116E04500424186E03AEFCEFF1
:1021F20010F0FEEF10F0FFEF10F018801850D8B476
:1022020005EF11F007EF11F01CEF11F01828D8A418
:102212000DEF11F00FEF11F017EF11F0000E016E3C
:10222200000E026E000E036E000E046E038E000E90
:10223200046E24EF11F0000E016E000E026E000E0D
:10224200036E000E046E0850800B111A0850082409
:10225200196E07AE2FEF11F031EF11F032EF11F0DE
:1022620019801950D8B438EF11F03AEF11F04FEF4E
:1022720011F01928D8A440EF11F042EF11F04AEF03
:1022820011F0000E056E000E066E000E076E000EB7
:10229200086E078E000E086E57EF11F0000E056EE5
:1022A200000E066E000E076E000E086E0550061038
:1022B20007100810D8A460EF11F062EF11F07AEF66
:1022C20011F0000E016E000E026E000E036E000E83
:1022D200046E800E03127F0E04121150041201C00C
:1022E20001F002C002F003C003F004C004F0BDEF2D
:1022F20012F01850D8A480EF11F082EF11F08CEF99
:1023020011F0000E016E000E026E000E036E000E42
:10231200046EBDEF12F0195018C009F00A6A095E86
:10232200000E0A5A7F0E0924126E000E0A20136E46
:1023320001C00DF002C00EF003C00FF004C010F097
:10234200000E016E000E026E000E036E000E046E91
:10235200000E146E000E156E000E166E000E176E35
:10236200000E196EEDEF11F01950D8B4BBEF11F059
:10237200BDEF11F0D4EF11F0D8900D360E360F36B6
:102382001036D890013602360336043617AECCEF3B
:1023920011F0CEEF11F0CFEF11F00180D89014368A
:1023A20015361636173605500D5C06500E58075076
:1023B2000F5808501058D8A0E1EF11F0E3EF11F0D8
:1023C200ECEF11F0178C05500D5E06500E5A0750B7
:1023D2000F5A0850105A192A190E1964F3EF11F006
:1023E200F5EF11F0B5EF11F00D500E100F101010A7
:1023F200D8B4FEEF11F000EF12F018EF12F01480D3
:1024020018EF12F0D890013602360336043617AEB2
:102412000DEF12F00FEF12F010EF12F00180D890D2
:1024220014361536163617361206D8A0130603AE22
:102432001DEF12F01FEF12F003EF12F0000E196EF3
:1024420017AE26EF12F028EF12F04CEF12F0FF0E4B
:102452001414096EFF0E15140A6EFF0E16140B6E7D
:102462007F0E17140C6E09500A100B100C10D8B402
:102472003DEF12F03FEF12F043EF12F0010E196E32
:102482004CEF12F001A048EF12F04AEF12F04CEFBD
:1024920012F03FEF12F01950D8B452EF12F054EF8D
:1024A20012F078EF12F0010E0126000E0222032232
:1024B200042204A05FEF12F061EF12F078EF12F045
:1024C20001C009F002C00AF003C00BF004C00CF016
:1024D2000C340C320B320A32093209C001F00AC044
:1024E20002F00BC003F00CC004F0124A132A13BE10
:1024F20083EF12F0135008E11228D8A083EF12F0F4
:1025020085EF12F090EF12F0000E136E1268000EBB
:10251200016E000E026E000E036E000E046E13BEFC
:102522009DEF12F0135006E11204D8B09BEF12F0A7
:102532009DEF12F0ABEF12F0000E136E000E126E52
:10254200000E016E000E026E000E036E000E046E8F
:10255200000E116E12C018F018A0B2EF12F0B4EF14
:1025620012F0B7EF12F0038EB8EF12F0039ED8907C
:102572001830046E6EEF11F01200B8C02AF0B9C024
:102582002BF0BAC02CF0BBC02DF01AC02AF01BC031
:102592002BF01CC02CF01DC02DF0810E1E6EFF0E04
:1025A2001F6E2AC020F02BC021F02CC022F02DC0BB
:1025B20023F0180EE2EF12F0D890233222322132A9
:1025C2002032E82EDDEF12F020501E24286E000E7D
:1025D2001F20296E29BEF7EF12F0295009E1170ECC
:1025E200285CD8A0F7EF12F0F9EF12F003EF13F026
:1025F2001AC01AF01BC01BF01CC01CF01DC01DF03D
:10260200C6EF13F029BE08EF13F00AEF13F07AEFCA
:1026120013F028C01EF0FF0E1F6EFF0E206E7F0EFD
:10262200216E000E226E1E6619EF13F021EF13F0D9
:1026320022342232213220321F321E2E14EF13F0A6
:102642001FC024F020C025F021C026F022C027F0B0
:1026520024502A141E6E25502B141F6E26502C1443
:10266200206E27502D14216E1E501F102010211095
:10267200D8A43EEF13F040EF13F042EF13F0F9EF5E
:1026820012F02AC01EF02BC01FF02CC020F02DC06B
:1026920021F0200E52EF13F0D890213220321F3257
:1026A2001E32E82E4DEF13F01E501F102010211085
:1026B200D8B45EEF13F060EF13F068EF13F024501C
:1026C2002A2625502B2226502C2227502D22241C2C
:1026D2001E6E251C1F6E261C206E271C216E1E508E
:1026E2002A161F502B1620502C1621502D16BEEFE5
:1026F20013F02AC01EF02BC01FF02CC020F02DC0FA
:1027020021F0200E8AEF13F0D890213220321F32AE
:102712001E32E82E85EF13F01E501F1020102110DC
:10272200D8A496EF13F098EF13F0A2EF13F0000E77
:102732002A6E000E2B6E000E2C6E000E2D6EBEEF5A
:1027420013F0D8902A341E6E2B341F6E2C34206E58
:102752002D34216E1E501F1020102110D8B4B4EF5A
:1027620013F0B6EF13F0BEEF13F0000E2A6E000E58
:102772002B6E800E2C6EBF0E2D6E2AC01AF02BC04F
:102782001BF02CC01CF02DC01DF01200096E095068
:10279200D8B4CEEF13F0D0EF13F0F2EF13F004BE83
:1027A200D7EF13F0D5EF13F0F2EF13F001C005F0FD
:1027B20002C006F003C007F004C008F0051E061EA2
:1027C200071E081E052A000E06220722082205C03F
:1027D2000BF006C00CF007C00DF008C00EF0FAEFC7
:1027E20013F001C00BF002C00CF003C00DF004C0E6
:1027F2000EF00150021003100410D8A403EF14F0DD
:1028020005EF14F00FEF14F0000E016E000E026ED1
:10281200000E036E000E046EA0EF14F0960E0A6E08
:1028220019EF14F00A2AD8900E320D320C320B3204
:10283200000E0B14056E000E0C14066E000E0D1425
:10284200076EFE0E0E14086E0550061007100810D3
:10285200D8A42EEF14F030EF14F013EF14F03EEF83
:1028620014F00A2A010E0B26000E0C220D220E2253
:10287200D8900E320D320C320B32000E0B14056E54
:10288200000E0C14066E000E0D14076EFF0E0E14D1
:10289200086E0550061007100810D8A453EF14F064
:1028A20055EF14F032EF14F05DEF14F00A06D890F1
:1028B2000B360C360D360E360DBE62EF14F064EF99
:1028C20014F06CEF14F0020E0A606AEF14F06CEF71
:1028D20014F057EF14F00AB071EF14F073EF14F024
:1028E20074EF14F00D9ED8900A320AC005F0066A01
:1028F200076A086A05C008F0076A066A056A055091
:102902000B1206500C1207500D1208500E120950ED
:10291200D8B48EEF14F090EF14F098EF14F004BED8
:1029220097EF14F095EF14F098EF14F00E8E0BC0A1
:1029320001F00CC002F00DC003F00EC004F0120052
:10294200000E166E000E156E000E0F6E000E0E6E4D
:10295200ADEF14F0084A092A010E146E08C0F6FF02
:1029620009C0F7FF0800F550200AD8B4BBEF14F0F5
:10297200BDEF14F0DAEF14F0F70E0A6EFF0E0B6ED5
:1029820008C0F6FF09C0F7FF0800F5500C6E0D6A8B
:102992000A500C260B500D220D5009E1050E0C5C5D
:1029A200D8A0D6EF14F0D8EF14F0DAEF14F0000E3E
:1029B200146E14C010F0116A10501110D8A4E4EF74
:1029C20014F0E6EF14F0ABEF14F0F0EF14F0000E99
:1029D2000F6E010E0E6E084A092A25EF15F008C087
:1029E200F6FF09C0F7FF0800F5500A6E0B6A0B509C
:1029F200000AD8B4FFEF14F025EF15F00A502B0AA5
:102A0200D8B4ECEF14F0060AD8B4E8EF14F025EFCE
:102A120015F015C001F016C002F0000E046E0A0E89
:102A2200036E61EC1CF008C0F6FF09C0F7FF080056
:102A3200F550015E000E025A300E0124156E000E92
:102A42000220166EECEF14F0D00E0A6EFF0E0B6E23
:102A520008C0F6FF09C0F7FF0800F5500C6E0D6ABA
:102A62000A500C260B500D220D500AE10A0E0C5C86
:102A7200D8A03EEF15F041EF15F0010E42EF15F030
:102A8200000E126E136A12501310D8A44BEF15F0F9
:102A92004DEF15F00AEF15F00E500F10D8A454EFB9
:102AA20015F056EF15F064EF15F015C00AF016C0D8
:102AB2000BF00A1E0B1E0A4A0B2A0AC008F00BC0B2
:102AC20009F068EF15F015C008F016C009F0120001
:102AD2000600E1CFAEF0E2CFAFF0D9CFB0F0DACF5F
:102AE200B1F0F3CFB2F0F4CFB3F0F6CFB4F0F7CF4A
:102AF200B5F0F8CFB6F0F5CFB7F0C3CFCCF0C4CF76
:102B0200CDF0CCC001F0CDC002F0036A046A000E21
:102B1200C7EC13F001C00FF002C010F003C011F0B7
:102B220004C012F00A0E136E280E146EA00E156E5B
:102B32003B0E166EDCEC0EF00FC0C0F010C0C1F000
:102B420011C0C2F012C0C3F0CF0E00019A6F000E86
:102B52009B6F010E9C6F080E9D6FC0C09EF0C1C09E
:102B62009FF0C2C0A0F0C3C0A1F0E8EC1AF0000EC2
:102B7200046E000E036E000E066E000E056E06EC6D
:102B82001CF0CF0E036E000E046E1EEC1CF0030E42
:102B92000001AD6F8A0EAC6F550EE82EFED7AC2F3A
:102BA200FCD7AD2FFAD700D09E9CC282B7C0F5FFEA
:102BB200B6C0F8FFB5C0F7FFB4C0F6FFB3C0F4FF6C
:102BC200B2C0F3FFB1C0DAFFB0C0D9FFAFC0E2FFBD
:102BD200AEC0E1FF5F921100033404340A6E0A5062
:102BE200D8A4F6EF15F0F8EF15F002EF16F0000E8C
:102BF200016E000E026E000E036E000E046E6FEF89
:102C020016F001C005F002C006F003C007F004C0D0
:102C120008F0200E12EF16F0D89008320732063272
:102C22000532E82E0DEF16F00550096E038EFF0EE9
:102C32000116FF0E0216FF0E0316000E0416960E64
:102C42000A5E0ABE29EF16F027EF16F03FEF16F0E4
:102C52000A50800A970FD8B031EF16F033EF16F012
:102C620035EF16F0F8EF15F0D89004320332023245
:102C720001320A3E35EF16F057EF16F01F0E0A64C6
:102C820045EF16F047EF16F04FEF16F0F8EF15F09C
:102C9200D89001360236033604360A060A50D8A402
:102CA20055EF16F057EF16F049EF16F00950D8B469
:102CB2005DEF16F05FEF16F067EF16F0041E031ECD
:102CC200021E016C000E02220322042201C001F046
:102CD20002C002F003C003F004C004F01200000EB0
:102CE2002814306E000E2914316E800E2A14326EB2
:102CF2007F0E2B14336E3050311032103310D8A4A3
:102D020085EF16F087EF16F08FEF16F0000E286EA3
:102D1200000E296E000E2A6E000E2B6E000E2C1471
:102D2200306E000E2D14316E800E2E14326E7F0E18
:102D32002F14336E3050311032103310D8A4A4EF58
:102D420016F0A6EF16F0AEEF16F0000E2C6E000E87
:102D52002D6E000E2E6E000E2F6E2BAEB3EF16F000
:102D6200B5EF16F0BEEF16F0286C291ED8B0292A4E
:102D72002A1ED8B02A2A800E2B562FAEC3EF16F089
:102D8200C5EF16F0CEEF16F02C6C2D1ED8B02D2A02
:102D92002E1ED8B02E2A800E2F56000E281A000E94
:102DA200291A000E2A1A800E2B1A000E2C1A000E57
:102DB2002D1A000E2E1A800E2F1A2C50285C2D5020
:102DC20029582E502A582F502B58D8B0EBEF16F016
:102DD200EDEF16F0F0EF16F0D890F1EF16F0D88084
:102DE2001200BCC00BF0BDC00CF0BEC00DF0BFC0E5
:102DF2000EF001C00BF002C00CF003C00DF004C0D5
:102E02000EF00BC005F00CC006F00DC007F00EC0AE
:102E120008F0180E12EF17F0D89008320732063277
:102E22000532E82E0DEF17F00550096E0A6A0950B7
:102E32000A10D8A41FEF17F021EF17F041EF17F097
:102E4200D8900B34056E0C34066E0D34076E0E34BA
:102E5200086E0550061007100810D8A433EF17F0BB
:102E620035EF17F03BEF17F0000E026E020E016E07
:102E720070EF17F0000E026E030E016E70EF17F086
:102E820009280A10D8A448EF17F04AEF17F06CEFA0
:102E920017F00BC005F00CC006F00DC007F00EC015
:102EA20008F0090ED8900536063607360836E82EA1
:102EB20053EF17F00550061007100810D8B464EF4E
:102EC20017F067EF17F0010E68EF17F0000E016EB2
:102ED200026A70EF17F0000E026E040E016E12000D
:102EE20001C008F002C009F003C00AF004C00BF0F0
:102EF2000506D8A00606052806E10628D8A484EF10
:102F020017F086EF17F093EF17F0000E026E000E27
:102F1200016EDBEF17F0084A092A0A4A0B2A050656
:102F2200D8A0060608C0D9FF09C0DAFFDF50D8B41E
:102F32009DEF17F09FEF17F0CAEF17F00AC0F6FFE8
:102F42000BC0F7FF0800F5500009D8B4ABEF17F03B
:102F5200ADEF17F0CAEF17F005500610D8B4B4EF72
:102F620017F0B6EF17F0CAEF17F008C0D9FF09C083
:102F7200DAFFDF50076E0AC0F6FF0BC0F7FF08004A
:102F8200F5500718D8B4C8EF17F0CAEF17F08CEF56
:102F920017F008C0D9FF09C0DAFFDF50076E0AC078
:102FA200F6FF0BC0F7FF0800F550075C016E026ADE
:102FB200D8A00206120003500410D8B4E3EF17F0B1
:102FC200E5EF17F0EEEF17F003500410D8A4ECEF82
:102FD20017F0EEEF17F0F3EF17F0015090EC1CF042
:102FE20040EF18F020EE04F00350D9260450DA2204
:102FF200DE50DE10D8B400EF18F002EF18F01DEF2B
:1030020018F020EE04F00350D9260450DA2210EE14
:1030120002F00350E1260450E222DE50E65CE65064
:10302200800A096EDE50800A0958D8B01BEF18F0EA
:103032001DEF18F040EF18F020EE02F00350D926F1
:103042000450DA22DECF05F0DDCF06F003C0D9FF4F
:1030520004C0DAFFDECF07F0DDCF08F00550072409
:10306200D96E06500820DA6E01C0DFFF20EE02F0B2
:103072000350D9260450DA22DE2A000EDD22120085
:103082000001CAA147EF18F049EF18F053EF18F00A
:1030920013C00AF014C00BF011C00CF012C00DF0F6
:1030A2005DEC1BF016BE58EF18F05AEF18F060EF07
:1030B20018F015C01AF016C01BF064EF18F0000EDD
:1030C2001B6E000E1A6E000E196E000E186E76EF51
:1030D20018F0000E026E200E016E11C003F012C035
:1030E20004F0DCEC17F0184A192A1A50185C19502F
:1030F200800A176E1B50800A1758D8A083EF18F069
:1031020085EF18F06AEF18F00001CAB18BEF18F0E2
:103112008DEF18F097EF18F013C00AF014C00BF0FF
:1031220011C00CF012C00DF05DEC1BF013C001F0E9
:1031320014C002F0D3EC1BF01A500124116E1B5084
:103142000220126E1200000E066E04BEADEF18F0E1
:10315200ABEF18F0B3EF18F0036C041ED8B0042ADA
:10316200010E066E02BEBAEF18F0B8EF18F0C0EF0B
:1031720018F0016C021ED8B0022A010E061A000EC7
:10318200086E000E076E03500410D8B4CBEF18F08F
:10319200CDEF18F0F5EF18F0010E056ED5EF18F02F
:1031A200D89003360436052A04AEDAEF18F0DCEFC5
:1031B20018F0D1EF18F0D890073608360350015CAA
:1031C20004500258D8A0E8EF18F0EAEF18F0EFEF39
:1031D20018F00350015E0450025A0780D89004325E
:1031E2000332052EDCEF18F00650D8B4FBEF18F0CE
:1031F200FDEF18F001EF19F0076C081ED8B0082A8D
:1032020007C001F008C002F01200000E066E02BEF6
:103212000FEF19F00DEF19F015EF19F0016C021E06
:10322200D8B0022A010E066E04BE1CEF19F01AEF86
:1032320019F020EF19F0036C041ED8B0042A0350D1
:103242000410D8B427EF19F029EF19F04DEF19F057
:10325200010E056E31EF19F0D89003360436052AB7
:1032620004AE36EF19F038EF19F02DEF19F00350D4
:10327200015C04500258D8A041EF19F043EF19F055
:1032820047EF19F00350015E0450025AD8900432FD
:103292000332052E38EF19F00650D8B453EF19F067
:1032A20055EF19F059EF19F0016C021ED8B0022A3D
:1032B20001C001F002C002F01200000E0114096EFA
:1032C200000E02140A6E800E03140B6E7F0E04149D
:1032D2000C6E09500A100B100C10D8A473EF19F0E1
:1032E20075EF19F07DEF19F0000E016E000E026EFF
:1032F200000E036E000E046E000E0514096E000E21
:1033020006140A6E800E07140B6E7F0E08140C6EE4
:1033120009500A100B100C10D8A492EF19F094EF78
:1033220019F09CEF19F0000E056E000E066E000EED
:10333200076E000E086E055001180FE106500218C4
:103342000CE10750031809E108500418D8B4ACEF97
:1033520019F0AEEF19F0B1EF19F0D890B2EF19F001
:10336200D88012000101556F8C500F0B8C6E010139
:103372005551F00B8C108C6E8C94070E0101546F1A
:103382007D0EE82EFED7542FFCD78C86070E010146
:10339200546F7D0EE82EFED7542FFCD78C960F0E5D
:1033A2008C1601015539F00BF00B8C128C94070E20
:1033B2000101546F7D0EE82EFED7542FFCD78C8668
:1033C200070E0101546F7D0EE82EFED7542FFCD755
:1033D2008C960F0E8C161200026E8C500F0B8C6E98
:1033E2000250F00B8C108C6E8C94070E016E7D0EC9
:1033F200E82EFED7012EFCD700F08C86070E016E58
:103402007D0EE82EFED7012EFCD700F08C960F0E13
:103412008C160238F00BF00B8C128C94070E016E96
:103422007D0EE82EFED7012EFCD700F08C86070E0B
:10343200016E7D0EE82EFED7012EFCD700F08C9691
:103442000F0E8C161200026E0F0E8C160250F00B2D
:103452008C128C84070E016E7D0EE82EFED7012E93
:10346200FCD700F08C86070E016E7D0EE82EFED78B
:10347200012EFCD700F08C960F0E8C160238F00B42
:10348200F00B8C128C84070E016E7D0EE82EFED797
:10349200012EFCD700F08C86070E016E7D0EE82E01
:1034A200FED7012EFCD700F08C960F0E8C16120060
:1034B2005AC098F05BC099F0000E0001C56F000E73
:1034C200C46F77EF1AF058C040F059C041F0980E1F
:1034D200426E000E436E5CC044F05DC045F0E9EC04
:1034E20009F040500001C4274150C52398C0F6FF9F
:1034F20099C0F7FF0800F5500009D8A483EF1AF02D
:1035020085EF1AF064EF1AF0C4C058F0C5C059F044
:103512001200BF0E096EFF0E0A6E07C00BF008C044
:103522000CF009500B260A500C220C500AE11A0E1C
:103532000B5CD8A09FEF1AF0A2EF1AF0010EA3EFD6
:103542001AF0000E0D6E0E6A0D500E10D8B4ACEFCC
:103552001AF0AEEF1AF0B5EF1AF0200E0710076E50
:103562000850086EB9EF1AF007C007F008C008F05B
:10357200120003C007F004C008F001C009F002C045
:103582000AF00750056E0850066E074A082A05C061
:10359200F6FF06C0F7FFF86A09C0D9FF0AC0DAFFD2
:1035A200094A0A2A070EF76403D00800F55005D02D
:1035B200F6CFE1FFF7CFE2FFE750DF6EDF50D8A48E
:1035C200E5EF1AF0E7EF1AF0C2EF1AF012009E0EC2
:1035D2000001A46F000EA56F9AC0A6F09BC0A7F0D1
:1035E200000EA96F000EA86F000EAB6F000EAA6F3F
:1035F200A60E586E000E596E9CC05AF09DC05BF02C
:10360200A40E5C6E000E5D6E59EC1AF00001A8511A
:103612009A25D96EA9519B21DA6E000EDF6E120037
:10362200010E076E200E01180210D8B41BEF1BF01A
:103632001DEF1BF036EF1BF0F70E036EFF0E046E4C
:1036420001C005F002C006F0035005260450062210
:10365200065009E1050E055CD8A032EF1BF034EFED
:103662001BF036EF1BF0000E076E07C001F0026A76
:103672001200000E2C1A000E2D1A000E2E1A800EA9
:103682002F1A28C001F029C002F02AC003F02BC073
:1036920004F02CC005F02DC006F02EC007F02FC09C
:1036A20008F07CEC0CF001C028F002C029F003C045
:1036B2002AF004C02BF01200000E106E000E0F6EE6
:1036C2006EEF1BF00EC001F0026A0CC003F00DC0D9
:1036D20004F0DCEC17F00F4A102A0F500A24D96EBE
:1036E20010500B20DA6EDF500E6E0E50D8A47CEF15
:1036F2001BF07EEF1BF063EF1BF01200BF0E036E98
:10370200FF0E046E01C005F002C006F0035005264C
:103712000450062206500AE11A0E055CD8A094EF66
:103722001BF097EF1BF0010E98EF1BF0000E016EDD
:10373200026A12000150021003100410D8B4A4EF60
:103742001BF0A6EF1BF0AEEF1BF0000E011A000EED
:10375200021A000E031A800E041A01C001F002C000
:1037620002F003C003F004C004F01200D00E036E96
:10377200FF0E046E01C005F002C006F003500526DC
:103782000450062206500AE10A0E055CD8A0CCEFCE
:103792001BF0CFEF1BF0010ED0EF1BF0000E016EFD
:1037A200026A120001C003F002C004F0DBEF1BF05A
:1037B200014A022A01C0D9FF02C0DAFFDF50D8A4B1
:1037C200E5EF1BF0E7EF1BF0D9EF1BF00350015CB4
:1037D200016E04500258026E1200000E956E300EF9
:1037E200B3EC19F0300EB3EC19F0320EB3EC19F061
:1037F200280EB3EC19F00C0EB3EC19F0010EB3EC79
:1038020019F0060EB3EC19F0120004BE11EF1CF011
:10381200045008E10304D8A011EF1CF013EF1CF0D0
:1038220019EF1CF00550C00FEDEC19F01DEF1CF064
:103832000550800FEDEC19F0120029EF1CF003C0C7
:10384200D9FF04C0DAFFDF5024EC1AF0034A042A3D
:1038520003C0D9FF04C0DAFFDF50D8A433EF1CF055
:1038620035EF1CF020EF1CF01200CF0EC116C15034
:10387200F00B0B09C16EC30EC2169E9C9D8C9F8CD1
:10388200C050F80B0509C06EC050C70B1009C06EBE
:10389200C08EC280C282120001EE00F0500EEE6AAB
:1038A200E806FDE100EEB8F0210EEE6AE806FDE161
:1038B2005E6A5F905F92000EF86E000174EF1CF07A
:1038C20001500302F3CF05F0F4CF06F001500402D9
:1038D200F350062602500302F350062605C001F0FB
:1038E20006C002F0120036EC1CF0EEEC1BF080EC8D
:1038F2001CF08CEC1CF07CEF1CF03CEF00F0D59A35
:10390200D58CD596070ED512EC0ED66EF28AF294AD
:10391200F194D58E1200D08EF28CF28E120012002B
:020000040020DA
:08000000FFFFFFFFFFFFFFFF00
:020000040030CA
:0E000000000C181EFF8180FF0FC00FE00F40A4
:00000001FF
