:020000040000FA
:0400000025EF00F0F8
:06000800148287ED00F0F8
:100018001480D8CF0BF0E8CF0CF0E0CF0DF0F0A0B3
:1000280018EF00F01AEF00F01DEF00F0020E136E4B
:10003800F0900DC0E0FF0CC0E8FF0BC0D8FF149093
:10004800100061EF00F0000E956E000E926E7AECD3
:1000580000F01304D8A433EF00F035EF00F044EFBC
:1000680000F0898005C08CFF030E0F6E8A0E0E6E9D
:10007800560EE82EFED70E2EFCD70F2EFAD78990F3
:10008800020E1318D8A44BEF00F04DEF00F02DEF3F
:1000980000F0898405C08CFF0D0E0F6EAF0E0E6E3A
:1000A800B60EE82EFED70E2EFCD70F2EFAD700D0AC
:1000B80089942DEF00F025EF00F0280EF66E010E62
:1000C800F76E000EF86E00EE01F010EE0AF009006F
:1000D800F5CFEEFFE550E150FAE1136A126A116AB2
:1000E800106A14901492000127EF00F09380938215
:1000F800F288F292F086F090F19CF19AF09CD08E02
:10010800F28CF28E12000600F2A28DEF00F08FEF53
:1001180000F092EF00F0010E136EF29214921100AB
:0A0128003F065B4F666D7D077F67A1
:020000040020DA
:08000000FFFFFFFFFFFFFFFF00
:020000040030CA
:0E000000000C181EFF8180FF0FC00FE00F40A4
:00000001FF
