:020000040000FA
:04000000E1EF04F038
:10080000006D6963726F636869700000026E8C50DE
:100810000F0B8C6E0250F00B8C108C6E8C94070EAC
:10082000016E7D0EE82EFED7012EFCD700F08C86DF
:10083000070E016E7D0EE82EFED7012EFCD700F0CC
:100840008C960F0E8C160238F00BF00B8C128C94D9
:10085000070E016E7D0EE82EFED7012EFCD700F0AC
:100860008C86070E016E7D0EE82EFED7012EFCD77A
:1008700000F08C960F0E8C161200026E0F0E8C1666
:100880000250F00B8C128C84070E016E7D0EE82E48
:10089000FED7012EFCD700F08C86070E016E7D0E70
:1008A000E82EFED7012EFCD700F08C960F0E8C168A
:1008B0000238F00BF00B8C128C84070E016E7D0E4B
:1008C000E82EFED7012EFCD700F08C86070E016EB5
:1008D0007D0EE82EFED7012EFCD700F08C960F0E71
:1008E0008C161200C9EC04F08C80000E046E010E10
:1008F000036E000E066E080E056EB1EC04F0570E86
:100900003DEC04F0000E046E000E036E000E066E49
:10091000000E056EB1EC04F0010E036E080E046EBD
:1009200096EC04F092EF04F000EF00F0A2EF04F078
:1009300003C0F6FF04C0F7FF0800F5503DEC04F0DB
:10094000034A042A03C0F6FF04C0F7FF0800F5506D
:100950000009D8A4AEEF04F0B0EF04F098EF04F073
:10096000120004BEBCEF04F0045008E10304D8A058
:10097000BCEF04F0BEEF04F0C4EF04F00550C00F6C
:1009800006EC04F0C8EF04F00550800F06EC04F00C
:100990001200000E956E300E06EC04F0300E06ECE0
:1009A00004F0320E06EC04F0280E06EC04F00C0EF7
:1009B00006EC04F0010E06EC04F0060E06EC04F062
:1009C0001200000EF86E080EF76E000172EF04F0D0
:020000040020DA
:08000000FFFFFFFFFFFFFFFF00
:020000040030CA
:0E000000000C181EFF8180FF0FC00FE00F40A4
:00000001FF
