:020000040000FA
:040000001EEF00F0FF
:0600080009829EED00F0EC
:100018000980D8CF01F0E8CF02F0E0CF03F0000E5E
:10002800086EF09003C0E0FF02C0E8FF01C0D8FFEF
:100038000990100096EF00F078EC00F089EC00F0E1
:100048000804D8A42AEF00F02CEF00F046EF00F0E7
:10005800064A072A075009E1340E065CD8A037EF94
:1000680000F039EF00F03DEF00F0000E076E330EA0
:10007800066E820E046EDE0EE82EFED7042EFCD726
:1000880058EF00F00606D8A0070606500710D8A4B7
:1000980050EF00F052EF00F03DEF00F0000E076E59
:1000A800010E066E3DEF00F006C004F007C005F033
:1000B800D89005320432D890053204320450BE6E0E
:1000C80006C004F0043AF00E0416BD500F0B0410DD
:1000D800BD6E820E046EDE0EE82EFED7042EFCD70F
:1000E80024EF00F01EEF00F00C0ECB6E000EBE6E7B
:1000F800CF0EBD169494CA50FC0B0209CA6ECA846E
:10010800BD50F00B0C09BD6E120093809382F288EB
:10011800F292F086F090F19CF19AF09CD08EF28CDD
:10012800F28E1200086A076A066A099009920001AD
:1001380020EF00F00600010E086EF29209921100FD
:020000040020DA
:08000000FFFFFFFFFFFFFFFF00
:020000040030CA
:0E000000000C181EFF8180FF0FC00FE00F40A4
:00000001FF
