:020000040000FA
:040000004CEF00F0D1
:0600080012825DED05F01F
:100018001280D8CF02F0E8CF03F0E0CF04F00F2A27
:100028000D4A0E2A630E0F641CEF00F01EEF00F05D
:1000380030EF00F08CB023EF00F026EF00F0010E57
:1000480027EF00F0000EFF0A016E8C500118FE0B1E
:1000580001188C6E000E0F6EE80E0D5C030E0E5824
:10006800D8A039EF00F03BEF00F041EF00F0020EAE
:10007800116E000E0E6E000E0D6EEC0ED66EF29422
:1000880004C0E0FF03C0E8FF02C0D8FF12901000D0
:0400980087EF05F0F9
:10080000004150414741444F2050574D203A432129
:10081000004143544956414D4F532050574D2100FC
:100820004269656E76656E69646F7321004163612C
:10083000626F6F6F6F2100000F0EC1129368000E80
:10084000956E45EC05F0A1EC05F095EC05F074EC27
:1008500005F01104D8A42FEF04F031EF04F041EFBC
:1008600004F0000E086E000E076E000E0A6E000EF9
:10087000096E2DEC05F0200E076E080E086E12ECC6
:1008800005F0020E1118D8A448EF04F04AEF04F066
:1008900060EF04F0010EA6EC04F0000E086E000EEE
:1008A000076E000E0A6E000E096E2DEC05F0110E9B
:1008B000076E080E086E12EC05F0CA84000E116E69
:1008C000030E1118D8A467EF04F069EF04F098EF55
:1008D00004F0CA94000E086E000E076E000E0A6E39
:1008E000000E096E2DEC05F0010E076E080E086E65
:1008F00012EC05F0000E086E010E076E000E0A6E77
:10090000000E096E2DEC05F02D0E076E080E086E18
:1009100012EC05F00D0E0C6EAF0E0B6EB60EE82E3F
:10092000FED70B2EFCD70C2EFAD700D0040E116E7A
:10093000040E1118D8A49FEF04F0A1EF04F029EFE2
:1009400004F0010EA6EC04F04CEF00F0066E8C50A3
:100950000F0B8C6E0650F00B8C108C6E8C94070E67
:10096000056E7D0EE82EFED7052EFCD700F08C8696
:10097000070E056E7D0EE82EFED7052EFCD700F083
:100980008C960F0E8C160638F00BF00B8C128C9494
:10099000070E056E7D0EE82EFED7052EFCD700F063
:1009A0008C86070E056E7D0EE82EFED7052EFCD731
:1009B00000F08C960F0E8C161200066E0F0E8C1621
:1009C0000650F00B8C128C84070E056E7D0EE82EFF
:1009D000FED7052EFCD700F08C86070E056E7D0E27
:1009E000E82EFED7052EFCD700F08C960F0E8C1645
:1009F0000638F00BF00B8C128C84070E056E7D0E02
:100A0000E82EFED7052EFCD700F08C86070E056E6B
:100A10007D0EE82EFED7052EFCD700F08C960F0E2B
:100A20008C1612001EEF05F007C0F6FF08C0F7FF96
:100A30000800F550DDEC04F0074A082A07C0F6FF6D
:100A400008C0F7FF0800F5500009D8A42AEF05F008
:100A50002CEF05F014EF05F0120008BE38EF05F09A
:100A6000085008E10704D8A038EF05F03AEF05F088
:100A700040EF05F00950C00FA6EC04F044EF05F07C
:100A80000950800FA6EC04F01200000E956E300E97
:100A9000A6EC04F0300EA6EC04F0320EA6EC04F046
:100AA000280EA6EC04F00C0EA6EC04F0010EA6EC49
:100AB00004F0060EA6EC04F0120006001050D8A4B4
:100AC00064EF05F066EF05F06CEF05F0010E116EB6
:100AD000D58E102A71EF05F0030E116ED59E000E13
:100AE000106EF292129211000C0ECB6E050EBE6EBD
:100AF000BD50CF0B1009BD6E9494CA50FC0B020977
:100B0000CA6ECA94BD50F00B0C09BD6E1200116A7A
:100B1000106A0F6A0E6A0D6A12901292000EF86E39
:100B2000080EF76E00011CEF04F0D59AD58CD5960F
:100B3000070ED512EC0ED66EF28AF294F194D59E81
:100B400012009380F288F292F19CD08EF28CF28E99
:020B5000120091
:020000040020DA
:08000000FFFFFFFFFFFFFFFF00
:020000040030CA
:0E00000000051F1FFF8385FF0FC00FE00F409C
:00000001FF
